:020000040800F2
:100000000000032015330008FB300008FD30000815
:10001000FF30000801310008033100080000000033
:100020000000000000000000000000000531000892
:100030000731000800000000093100080B310008FA
:100040006D3300086D3300086D3300086D33000810
:100050006D3300086D3300086D3300086D33000800
:100060006D3300086D3300086D3300086D330008F0
:100070006D3300086D3300086D3300086D330008E0
:100080006D3300086D3300086D3300086D330008D0
:100090006D3300086D3300086D3300086D330008C0
:1000A0006D3300086D3300086D3300086D330008B0
:1000B0006D3300086D3300086D3300086D330008A0
:1000C0006D3300086D3300086D3300086D33000890
:1000D0006D3300086D3300086D3300086D33000880
:1000E0006D3300086D3300086D3300086D33000870
:1000F0006D3300086D3300086D3300086D33000860
:100100006D3300086D3300086D3300086D3300084F
:100110006D3300086D3300086D3300086D3300083F
:100120006D3300086D3300086D3300086D3300082F
:0C0130006D3300086D3300086D330008CB
:10013C0053B94AB9002908BF00281CBF4FF0FF3142
:10014C004FF0FF3000F00CB8ADF1080C6DE904CEA7
:10015C0003F034F9DDF804E0DDE9022304B0704764
:10016C00704700BF10B5054C237833B9044B13B15D
:10017C000448AFF300800123237010BD140000204D
:10018C0000000000C036000808B5034B1BB1034942
:10019C000348AFF3008008BD0000000018000020E9
:1001AC00C036000800B587B000230093019302937A
:1001BC000393049305931948194A026043608360C2
:1001CC00C360036104224261037643760122C2615B
:1001DC0080F820308362C36280F83030436380F84B
:1001EC00383000F03DFC90B90E4B00930623019380
:1001FC00002302937F220392042204920593694602
:10020C00064800F077FD28B907B05DF804FB00F054
:10021C00F1F9E9E700F0EEF9F6E700BF3000002055
:10022C00000004508000501D10B59CB00446002105
:10023C001791189119911A911B91502203A803F050
:10024C0090F822681E4B9A4201D01CB010BD4FF49E
:10025C0080630393062304934FF4003305934FF00C
:10026C00007306934FF0005307934FF0805308939D
:10027C00129303A802F005F9F8B94FF0B043DA6C09
:10028C0042F40052DA64DA6C02F400520292029ADE
:10029C00DA6C42F00102DA64DB6C03F001030193C7
:1002AC00019B0C231793032318930023199317A96D
:1002BC004FF0904001F030F9C7E700F09BF9DCE714
:1002CC0000000450F0B589B003AD002403940494ED
:1002DC000594069407944FF0B043DA6C42F0040294
:1002EC00DA64DA6C02F004020292029ADA6C42F0DE
:1002FC000102DA64DA6C02F001020192019ADA6C02
:10030C0042F00202DA64DB6C03F002030093009B00
:10031C001B4E22460F21304601F0DFF92246032105
:10032C004FF0904001F0D9F90F2303930127049764
:10033C00059406942946304601F0EEF80323039306
:10034C0004970594069429464FF0904001F0E4F888
:10035C0040230393049405972946304601F0DCF8BA
:10036C004FF4C053039302230493059406940A2379
:10037C00079329464FF0904001F0CEF809B0F0BD3C
:10038C000008004870B586B0044600260096019619
:10039C00029603960496059600910622019202920B
:1003AC00694600F0A7FC354603E0204601F028F82A
:1003BC0001350F2D0DDC204600F09CFF0A21204654
:1003CC0000F03AFC0028F0D1204600F08FFC0644E7
:1003DC00EBE7C6F30F1006B070BD0160426083609E
:1003EC00009BC360BDF804300382704770B50646AD
:1003FC000024254605E071683068FFF7C3FF05440B
:10040C0001341F2CF7DD6D09014B1D8070BD00BF41
:10041C009400002008B541680068FFF7B3FF074B54
:10042C001B88C01A502804DC10F1500F03DB00208D
:10043C0008BD0120FCE70220FAE700BF9400002071
:10044C0038B50446018AC06801F040F910B10025A6
:10045C00284638BD0546142000F0C0FA218AE06811
:10046C0001F034F90028F3D10125F1E7034B1A68A8
:10047C0000235362536A8342FCD37047B0000020C0
:10048C0008B500F0ABFA08BD08B5012202214FF007
:10049C00904001F022F91420FFF7E8FF002202211E
:1004AC004FF0904001F019F91420FFF7DFFF08BD61
:1004BC0038B504460D4D00F001020121284601F02B
:1004CC000CF9C4F340020221284601F006F9C4F3EA
:1004DC0080020421284601F000F9C4F3C00208216F
:1004EC00284601F0FAF8FFF7CFFF38BD00080048A6
:1004FC0010B50446002201214FF0904001F0EDF8B8
:10050C002009FFF7D5FF2046FFF7D2FF2820FFF781
:10051C00ADFF10BD10B50446012211464FF09040BE
:10052C0001F0DBF82009FFF7C3FF2046FFF7C0FFFF
:10053C00002201214FF0904001F0CFF82C20FFF762
:10054C0095FF10BD08B58901C9B2084460F07F0061
:10055C00C0B2FFF7CDFF08BD08B51E20FFF790FF16
:10056C000320FFF7A5FF0520FFF78AFF0320FFF705
:10057C009FFF9620FFF77AFF0320FFF799FF0220D9
:10058C00FFF796FF2820FFF7B3FF0C20FFF7B0FF13
:10059C000620FFF7ADFF08BD08B50120FFF7A8FF47
:1005AC000220FFF76DFF0220FFF7A2FF0220FFF7EA
:1005BC0067FF08BD10B5044602E00134FFF7AAFF3F
:1005CC0020780028F9D110BD38B505460C4600211D
:1005DC000846FFF7B7FF2846FFF7ECFF0121002084
:1005EC00FFF7B0FF2046FFF7E5FF4FF47A7000F0FD
:1005FC00F5F938BD72B6FEE710B59AB008AC4822D2
:10060C000021204602F0ADFE0023019302930393D8
:10061C0004930593069307934FF0B041CA6822F0F8
:10062C00700242F01002CA60CA6822F0030242F063
:10063C000102CA6001F580610A6822F4C06242F4CA
:10064C0000720A600A6802F4C0620092009A2222C8
:10065C0008924FF480720B9201220F9240220C925E
:10066C001093A02211921393204601F043F980B904
:10067C006F23019300230293039304930593802229
:10068C0006920793012101A801F0C0FC18B91AB019
:10069C0010BDFFF7AFFFFFF7ADFF10B594B05022C0
:1006AC000021684602F05DFE4FF40053009368464B
:1006BC0001F0E7FE08B914B010BDFFF79BFF000076
:1006CC002DE9F041DAB000F05BF9FFF795FFFFF789
:1006DC00E4FFFFF7F7FDFFF765FD02F093FD02F075
:1006EC0045FD844802F078F8FFF736FFFFF754FF1A
:1006FC00814C40230193814B0093814B814A824969
:10070C002046FFF76AFE2046FFF770FE002408948F
:10071C0009940A940B948DF8304003940494059436
:10072C0006948DF81C402646254630E001242EE028
:10073C00FFF732FF08AF754B3C460FCB07C424F8CC
:10074C00023B1B0C23700DF10C08714A434607CA7F
:10075C0003C323F8022B120C1A7041463846FFF7DC
:10076C0033FF4FF4FA6000F039F9FFF715FF694BCE
:10077C003C460FCB07C424F8023B1B0C2370002310
:10078C008DF80C3041463846FFF71EFF0124052C2E
:10079C00CCD801A353F824F03D070008BD0700088E
:1007AC00CB070008F9070008B1080008D9080008B1
:1007BC005148FFF745FE0028E9D00224E7E7FFF790
:1007CC00EBFE08AC544B93E8070084E8070003AF3A
:1007DC00524A3B4607CA03C323F8022B120C1A7069
:1007EC0039462046FFF7F0FE0324D0E74248FFF7D6
:1007FC0011FE0746022D01DC012E0AD0002F42D03B
:10080C000025BE4240D0012F09D0022F22D03E46F7
:10081C003AE010B901353746F3E70025F1E7FFF769
:10082C00BBFE0DF1200C3E4B66460FCB07C633804A
:10083C0003AE3A4A334607CA03C323F8022B120C01
:10084C001A7031466046FFF7BFFE01228DF8342046
:10085C003E4619E0FFF7A0FE0DF1200C2E4B93E85D
:10086C0007008CE807000DF10C0E2E4B76460FCBD3
:10087C0007C6337071466046FFF7A6FE02228DF85C
:10088C0034203E4600E000251B48FFF7D9FD002828
:10089C003FF47DAF9DF83430012B01D0052476E771
:1008AC00042474E7FFF778FE08AF1F4B3C460FCBD0
:1008BC0007C4238003A900230B703846FFF784FE7E
:1008CC004FF4FA6000F08AF8022460E7FFF764FE48
:1008DC0008AF164B3C460FCB07C4238003A900235B
:1008EC000B703846FFF770FE4FF4FA6000F076F8A4
:1008FC0002244CE7B00000209800002000080048BB
:10090C00000180218000501D3000002004370008B9
:10091C001437000820370008303700083C3700082F
:10092C00483700085837000868370008783700083F
:10093C00114B1B780BB90120704710B5044600F021
:10094C00C9FF0D4B1A784FF47A73B3FBF2F3B0FB7B
:10095C00F3F000F0CDFD68B90F2C01D901200AE0AD
:10096C00002221464FF0FF3000F0B2FD034B1C601B
:10097C00002000E0012010BD080000200C00002029
:10098C0010B5094A136843F480731360032000F018
:10099C008DFD0020FFF7CCFF10B10124204610BDC7
:1009AC00044600F09FFEF9E700400058034B1B780B
:1009BC00034A11680B441360704700BF0800002005
:1009CC00AC000020014B1868704700BFAC00002041
:1009DC00014B1868704700BF0C00002038B5044666
:1009EC00FFF7F0FF0546B4F1FF3F02D0044B1B7834
:1009FC001C44FFF7E7FF401BA042FAD338BD00BFF1
:100A0C000800002010B430300B0A9B0003F00C03DC
:100A1C00C45801F01F014FF01F0C0CFA01FC24EA22
:100A2C000C0CC2F384628A404CEA0202C2505DF89C
:100A3C00044B704710B414304B0E9B0003F00403AE
:100A4C00C458C1F304514FF0070C0CFA01FC24EA12
:100A5C000C0C8A404CEA0202C2505DF8044B704701
:100A6C0030B583B000230193002800F0D8800446F1
:100A7C00436D13B323689A6812F0005F05D09A682F
:100A8C0022F0204222F03F029A602268936813F011
:100A9C00805F1FD1936823F0104323F03F0343F092
:100AAC00805393605F4B1B689B095F4AA2FB032337
:100ABC009B0901335B00019309E0FFF7B5FB0023B1
:100ACC00A36584F85030D5E7019B013B0193019B52
:100ADC00002BF9D12268936813F0805F78D1636D95
:100AEC0043F010036365A36D43F00103A36501207C
:100AFC00936813F0040300D00123616D11F0100F03
:100B0C0040F08680002B40F08380636D23F481736A
:100B1C0043F002036365936813F0010F0BD1434B51
:100B2C009B6813F0010F06D1636841498A6822F46F
:100B3C007C1213438B60627E636B43EA4233E26840
:100B4C001343A268134394F8202043EA0243012A7A
:100B5C0040D0A26A22B102F47072E16A0A431343D4
:100B6C002168CD68334A2A401A43CA6021688B68D1
:100B7C0013F0040300D001238A6812F0080200D09D
:100B8C000122B3B9AAB9237E94F83020520042EA6C
:100B9C008332CB6823F4804323F002031343CB60EE
:100BAC0094F83830012B1AD02268136923F0010312
:100BBC0013612369012B22D02268136B23F00F03DE
:100BCC001363636D23F0030343F00103636524E0B7
:100BDC0000208DE7626A013A43EA4243B9E7216893
:100BEC000B696FF38A03E26B256C2A43656C2A430D
:100BFC00A56C2A43134343F001030B61D9E7216829
:100C0C000B6B23F00F03E269013A13430B63D8E734
:100C1C00636D43F010036365012003B030BD012008
:100C2C00FBE700BF10000020632D3E0500000450C0
:100C3C000003045007C0F0FFF8B504460E464569A2
:100C4C00082D05D00368DB6813F0010F1ED10425B5
:100C5C00FFF7B8FE074623681A682A421CD1B6F182
:100C6C00FF3FF8D0FFF7AEFEC31BB34201D8002EF6
:100C7C00F1D123681B682B42EDD1636D43F0040363
:100C8C006365002384F85030032004E0436D43F087
:100C9C00200343650120F8BD626D42F40072626569
:100CAC00DA6812F4406F11D1627E7AB91A6812F0C8
:100CBC00080F0BD0626D22F480726265626D12F4C3
:100CCC00805F03D1626D42F001026265082D07D08E
:100CDC00DA6812F4804F07D10C221A600020DAE790
:100CEC0008221A600020D6E70020D4E70368186CAD
:100CFC0070470000F0B583B00023019390F850309A
:100D0C00012B00F0028204460D46012380F850307E
:100D1C000068836813F0040F09D0636D43F020035F
:100D2C0063650120002384F8503003B0F0BD0A68DD
:100D3C004968FFF767FE2068836813F0040300D04E
:100D4C000123826812F0080200D001220BB9002A9C
:100D5C003AD02268936813F0010F40F0D0812B68D1
:100D6C00E868D2F8B010C3F3120621EA060100F0CD
:100D7C00180CA74820FA0CF00340C3F312030B43E2
:100D8C00C2F8B030EA68A34B9A4200F0A2802B68FC
:100D9C00A14A134200F0B581A04A926802F0E070BB
:100DAC009F49896811F0010F40F055819D498B4294
:100DBC0000F057819C498B4200F07A819B498B4211
:100DCC0000F08A810020ADE7AA682968FFF732FE9F
:100DDC0069692268D368C3F3C1035B009940286931
:100DEC0004280ED02E68603252F82070904B3B4095
:100DFC0006F0F84631430B4343F0004342F82030F1
:100E0C00A7E7136E116EC1F384612B68C3F3120054
:100E1C0080BBC3F38463994234D021684B6E4A6E15
:100E2C00C2F384622B68C3F3120080BBC3F38463E8
:100E3C009A4234D021688B6E8A6EC2F384622B681E
:100E4C00C3F3120080BBC3F384639A4234D021688D
:100E5C00CB6ECA6EC2F384622B68C3F3120080BBE4
:100E6C00C3F384639A427FF474AFCB6E23F00043D8
:100E7C00CB666EE793FAA3F313B1B3FA83F3CAE725
:100E8C002023C8E7136E23F000431366C5E793FADB
:100E9C00A3F313B1B3FA83F3CAE72023C8E74B6E6D
:100EAC0023F000434B66C5E793FAA3F313B1B3FAEF
:100EBC0083F3CAE72023C8E78B6E23F000438B66CD
:100ECC00C5E793FAA3F313B1B3FA83F3CAE720236C
:100EDC00C8E720682B68C3F312063EBB9A0E01329A
:100EEC0002F01F02092A8CBF00220122002A55D0D1
:100EFC005EBB990E0131890601F0F8418EBB4FEAB9
:100F0C00936C0CF1010C0CF01F0C012202FA0CF288
:100F1C001143AEBB9B0E013303F01F0303EB4303E2
:100F2C001B051943AA68FFF785FD30E793FAA3F276
:100F3C004AB1B2FA82F2013202F01F02092A8CBFC6
:100F4C0000220122D2E72022F5E793FAA3F131B176
:100F5C00B1FA81F10131890601F0F841CEE7202187
:100F6C00F8E793FAA3F24AB1B2FA82F2013202F034
:100F7C001F024FF0010C0CFA02F2C9E72022F5E730
:100F8C0093FAA3F343B1B3FA83F3013303F01F03D2
:100F9C0003EB43031B05C4E72023F6E7E6B9990EE0
:100FAC000131890601F0F84116BB4FEA936C0CF144
:100FBC00010C0CF01F0C012202FA0CF21143CEBBF7
:100FCC009B0E013303F01F0303EB43031E3B1B0576
:100FDC0043F000731943A5E793FAA3F131B1B1FAC9
:100FEC0081F10131890601F0F841DDE72021F8E7B4
:100FFC0093FAA3F24AB1B2FA82F2013202F01F0262
:10100C004FF0010C0CFA02F2D8E72022F5E700BFF2
:10101C00FFFF070000007F40000008800003045021
:10102C0000000450000052C7000084CB0100008077
:10103C0000F0FF0393FAA3F35BB1B3FA83F301332C
:10104C0003F01F0303EB43031E3B1B0543F000732C
:10105C00C0E72023F3E7636D43F0200363650120B1
:10106C0060E612F4000F7FF4A5AE2268284B9A427A
:10107C0001D0002056E640F4000326498A6822F08D
:10108C00E07213438B60244B1B689B09234AA2FB21
:10109C0003239B09013303EB43039B00019302E001
:1010AC00019B013B0193019B002BF9D1002039E6F8
:1010BC0012F0807F7FF482AE2268154B9A4201D0E9
:1010CC0000202FE640F0807312498A6822F0E0720B
:1010DC0013438B60002025E612F4800F13D1226895
:1010EC000B4B9A4201D000201CE640F480030949C6
:1010FC008A6822F0E07213438B60002012E6002015
:10110C0010E600200EE600200CE602200DE600BFE3
:10111C00000004500003045010000020632D3E0515
:10112C0070B5044603689A6812F0040200D00122DC
:10113C00986810F0080000D001200AB900286DD082
:10114C00DA6812F0007F04D0208B40F2011290423A
:10115C004ED0022912D023689A6812F0040F0BD0DB
:10116C009A6812F0020F07D19A6822F0004222F01E
:10117C003F0242F010029A60012947D023689A6816
:10118C0012F0080F0BD09A6812F0020F07D19A6870
:10119C0022F0004222F03F0242F020029A60022923
:1011AC0036D0032936D10C25FFF70CFC06462368F4
:1011BC009B682B4230D0FFF705FC801B0528F6D925
:1011CC0023689B682B42F2D0636D43F01003636578
:1011DC00A36D43F00103A36501201EE0636D43F092
:1011EC0010036365A36D43F00103A365012014E0B4
:1011FC000022196811F0400F04D109498A42EDD838
:10120C000132F6E740221A600121A4E70425CBE75E
:10121C000825C9E70425C7E7002070BD0020FCE7BE
:10122C00FFFF3FA330B583B00023019303689A6896
:10123C0012F0010F52D1044699682A4A114216D174
:10124C009A6822F0004222F03F0242F001029A60BA
:10125C00254B9B6813F4000F19D0244B1B689B097A
:10126C00234AA2FB03239B09013301930CE0436D3A
:10127C0043F010034365836D43F001038365012044
:10128C002DE0019B013B0193019B002BF9D1FFF752
:10129C0099FB054604E0FFF795FB431B022B11D885
:1012AC0023681A6812F0010F16D19A6812F0010F18
:1012BC00F1D19A6822F0004222F03F0242F0010282
:1012CC009A60E8E7636D43F010036365A36D43F028
:1012DC000103A365012002E0002000E0002003B020
:1012EC0030BD00BF3F000080000304501000002000
:1012FC00632D3E0503689B6813F0040F32D110B5C3
:10130C00044690F85030012B2ED0012380F8503039
:10131C00FFF788FF10BB636D23F4706323F00103A8
:10132C0043F480736365636D13F4805F13D0A36D16
:10133C0023F00603A36523681C221A60002384F89B
:10134C0050302268936823F0004323F03F0343F0AE
:10135C000403936010BD0023A365ECE7002384F81D
:10136C005030F7E7022070470220F3E738B5044607
:10137C000268936813F0020300D00123916811F006
:10138C00010F39D0002B39D1936803F00D03012BD9
:10139C0009D0636D43F010036365A36D43F0010343
:1013AC00A365012029E0936823F0004323F03F0359
:1013BC0043F002039360236803221A60FFF702FBD9
:1013CC00054623689B6813F0010F13D0FFF7FAFA58
:1013DC00401B0228F5D923689B6813F0010FF0D04D
:1013EC00636D43F010036365A36D43F00103A365C4
:1013FC00012002E0002000E0002038BD0020FCE7C6
:10140C0090F85030012B1AD010B50446012380F807
:10141C0050300321FFF784FE18B1002384F85030BC
:10142C0010BD2046FFF7A2FF0028F6D1636D23F410
:10143C00885323F0010343F001036365EDE70220B9
:10144C0070470000002808DB0901C9B200F16040B8
:10145C0000F5614080F80013704700F00F0009019F
:10146C00C9B2014B1954704714ED00E000B500F0FF
:10147C000700C0F1070CBCF1040F28BF4FF0040C9F
:10148C00031D062B0FD9C31E4FF0FF3E0EFA0CF0B6
:10149C0021EA000199400EFA03FE22EA0E0241EA0B
:1014AC0002005DF804FB0023EEE70000074AD36856
:1014BC0023F4E0631B041B0C000200F4E060034304
:1014CC0043F0BF6343F40033D360704700ED00E09A
:1014DC0010B50446054BD868C0F30220FFF7C6FFD1
:1014EC0001462046FFF7AEFF10BD00BF00ED00E047
:1014FC000138B0F1807F0BD24FF0E0235861054AE0
:10150C00F02182F823100020986107221A6170479D
:10151C000120704700ED00E0F0B5002366E085681F
:10152C005E000324B44025EA0405CC68B4402C4387
:10153C008460456825EA0C054C68C4F300149C4093
:10154C002C43446063E0DD08083550F8254003F077
:10155C00070C4FEA8C0C4FF00F0E0EFA0CFE24EA1F
:10156C000E0E0C6904FA0CF444EA0E0440F8254003
:10157C0064E0042400E0002404FA0EF42C430CF183
:10158C00020C4F4D45F82C404E4C2568D44325EAAF
:10159C0002064F6817F4801F01D042EA0506494D38
:1015AC002E606D6804EA05064F6817F4001F01D021
:1015BC0042EA0506434D6E60D5F8805004EA0506F4
:1015CC004F6817F4803F01D042EA05063D4DC5F83F
:1015DC008060D5F884502C404E6816F4003F01D042
:1015EC0042EA0504374AC2F8844001330A6832FAE9
:1015FC0003F464D04FF0010C0CFA03FC1CEA020259
:10160C00F3D04C6804F00304013C012C87D94C68DE
:10161C0004F00304032C0CD0C4685D004FF0030CE1
:10162C000CFA05FC24EA0C0C8C68AC4044EA0C0463
:10163C00C4604C6804F00304022C84D004684FEAA4
:10164C00430E4FF0030C0CFA0EFC24EA0C0C4C6805
:10165C0004F0030404FA0EF444EA0C0404604C682D
:10166C0014F4403FC1D04FEA930C0CF10205144C1A
:10167C0054F8255003F0030E4FEA8E0E0F2404FA93
:10168C000EF425EA0405B0F1904F3FF474AF0E4C04
:10169C00A0420ED004F58064A0420CD004F5806406
:1016AC00A0420AD004F58064A0423FF462AF072444
:1016BC0062E7012460E702245EE703245CE7F0BDE7
:1016CC00000001400008005800040048036919425A
:1016DC0001D001207047002070470AB1816170472A
:1016EC008162704770470000024A136843F48073AC
:1016FC001360704700040058024B186800F4C06077
:10170C00704700BF0004005830B58DB005468E46BA
:10171C002B4C94E80F000DF1300C0CE90F0005ABCD
:10172C0004F1100207CA83E807000DF1040C1C3405
:10173C0094E80F008CE80F00BEF5007F07D0002363
:10174C0014E00CAA02EB830353F82C5C1EE000237C
:10175C00032B08D80CAA02EB830252F8102CAA42D5
:10176C00EFD20133F4E7002510E00133022B0CD843
:10177C000CAA02EB830252F81C2CAA42F5D30CAA39
:10178C0002EB830353F82C5C00E000250D4A136830
:10179C0023F007032B431360FFF714F90446094B9E
:1017AC001B6803F00703AB4206D0FFF70BF9001BD5
:1017BC000228F4D9032000E000200DB030BD00BF9A
:1017CC00D83600080040005810B5B02816D90E4B7A
:1017DC00DC6A4FF0B043D3F8083103F00F030B4A27
:1017EC0052F82330B4FBF3F4FFF786FF0146084BA5
:1017FC00A3FB0434A00CFFF787FF10BDC0F303104C
:10180C00014B53F82040E4E7B037000810380008CB
:10181C0083DE1B434FF0B0439B6813F00C030DD1D8
:10182C004FF0B0431B6803F0F003B02B04D81B0936
:10183C00254A52F823007047B023F8E7042B3ED01A
:10184C00082B10D04FF0B043DB6803F00303022BDE
:10185C0031D0032B0FD14FF0B0431B6813F4801F12
:10186C002BD11A4812E04FF0B0431B6813F4801FC1
:10187C0027D0174870474FF0B0431B6803F0F003B4
:10188C00B02B16D81B09104A52F823004FF0B04267
:10189C00D368C3F3062303FB00F0D368C3F302132E
:1018AC000133B0FBF3F0D3685B0F0133B0FBF3F003
:1018BC007047B023E6E70648E8E70548E6E7044842
:1018CC0070470248704700BFB03700080048E80175
:1018DC000024F40008B5FFF79DFF4FF0B0439B6860
:1018EC00C3F30313024A52F82330B0FBF3F008BDE4
:1018FC0010380008002800F0728338B504460368DD
:10190C0013F0200F2DD04FF0B0429368D26802F044
:10191C00030213F00C0358D00C2B54D0E369002BAA
:10192C0000F0A0804FF0B042136843F00103136045
:10193C00FFF748F805464FF0B0431B6813F0020F51
:10194C0000F08880636A4FF0B042116821F0F0011A
:10195C000B431360216A536823F47F4343EA01234A
:10196C005360236813F0010F00F09A804FF0B042DF
:10197C00936803F00C03D26802F00302082B00F00A
:10198C008B800C2B00F085806368B3F5803F00F0F2
:10199C00B0804FF0B042136823F480331360636857
:1019AC00002B00F0AD80FFF70DF805464FF0B0436B
:1019BC001B6813F4003F73D1FFF704F8401B642835
:1019CC00F4D9032016E3012AA8D1E369002B00F017
:1019DC000883606A4FF0B0431B6803F0F003B02B30
:1019EC0021D8984221D9FFF7EFFE002840F0FB8266
:1019FC00636A4FF0B042116821F0F0010B431360A1
:101A0C00216A536823F47F4343EA01235360FFF7B1
:101A1C0061FFBF4B1860BF4B1868FEF789FF0028A9
:101A2C009FD00120E6E2B023DBE74FF0B042136811
:101A3C0023F0F00318431060216A536823F47F43AA
:101A4C0043EA01235360606AFFF7BEFE0028DED034
:101A5C000120CFE2FEF7B6FF401B02287FF66BAFEA
:101A6C000320C7E24FF0B042136823F00103136068
:101A7C00FEF7A8FF05464FF0B0431B6813F0020FAA
:101A8C003FF46FAFFEF79EFF401B0228F3D90320F3
:101A9C00B0E2032A7FF478AF6368002B00F0A582D4
:101AAC00236813F0020F54D04FF0B042936803F048
:101ABC000C03D26802F00302042B33D00C2B2FD072
:101ACC00E368002B71D04FF0B042136843F480737D
:101ADC001360FEF777FF05464FF0B0431B6813F415
:101AEC00806F2DD1FEF76EFF401B0228F4D9032026
:101AFC0080E24FF0B042136843F4803313604EE73A
:101B0C00FEF760FF05464FF0B0431B6813F4003F2F
:101B1C00C6D0FEF757FF401B6428F4D9032069E2B6
:101B2C00022ACDD1E368002B00F0618221694FF0CD
:101B3C00B042536823F0FE4343EA0163536008E06C
:101B4C0021694FF0B042536823F0FE4343EA01632E
:101B5C005360236813F0180F00F0DE806269002ACE
:101B6C0000F0A38013F0100F70D04FF0B043D3F8F7
:101B7C00943013F0020F2ED14FF0B042D2F89430C3
:101B8C0043F00103C2F89430FEF71CFF05464FF0FA
:101B9C00B043D3F8943013F0020F1CD1FEF712FFB0
:101BAC00401B0228F3D9032024E24FF0B042136803
:101BBC0023F480731360FEF705FF05464FF0B04326
:101BCC001B6813F4806FC4D0FEF7FCFE401B022888
:101BDC00F4D903200EE24FF0B042D2F8943043F027
:101BEC000403C2F89430FEF7EDFE05464FF0B04307
:101BFC00D3F8943013F0080F06D1FEF7E3FE401B28
:101C0C000328F3D90320F5E1A1694FF0B042D2F8D3
:101C1C00943023F4706343EA0123C2F89430D2F871
:101C2C00943023F00103C2F89430FEF7CBFE054646
:101C3C004FF0B043D3F8943013F0020F6CD0FEF792
:101C4C00C1FE401B0228F3D90320D3E14FF0B04270
:101C5C00D2F8943043F00103C2F89430FEF7B2FE90
:101C6C0005464FF0B043D3F8943013F0020F06D171
:101C7C00FEF7A8FE401B0228F3D90320BAE14FF06F
:101C8C00B042D2F8943023F00403C2F894304FF0F1
:101C9C00B043D3F8943013F0080F3DD0FEF792FE0A
:101CAC00401B0328F3D90320A4E14FF0B042D2F833
:101CBC00943023F00403C2F89430FEF783FE0546FB
:101CCC004FF0B043D3F8943013F0080F18D14FF005
:101CDC00B042D2F8943023F00103C2F89430FEF7EE
:101CEC0071FE05464FF0B043D3F8943013F0020F59
:101CFC0012D0FEF767FE401B0228F3D9032079E1CE
:101D0C00FEF760FE401B0328DAD9032072E100BF06
:101D1C00100000200C000020236813F0040F68D082
:101D2C00B74B1B6813F4807F27D0A368012B35D0E9
:101D3C00052B3CD04FF0B043D3F8902022F0010299
:101D4C00C3F89020D3F8902022F00402C3F890201E
:101D5C00A368DBB3FEF736FE05464FF0B043D3F86D
:101D6C00903013F0020F44D1FEF72CFE401B41F2D1
:101D7C0088339842F1D903203CE1FFF7B5FCFEF71C
:101D8C0021FE05469E4B1B6813F4807FCDD1FEF7D8
:101D9C0019FE401B0228F5D903202BE14FF0B0426D
:101DAC00D2F8903043F00103C2F89030D0E74FF0F6
:101DBC00B043D3F8902042F00402C3F89020D3F83B
:101DCC00902042F00102C3F89020C1E7FEF7FAFD23
:101DDC0005464FF0B043D3F8903013F0020F08D003
:101DEC00FEF7F0FD401B41F288339842F1D90320F5
:101DFC0000E1236813F0400F33D0A36AC3B14FF056
:101E0C00B042D2F8983043F00103C2F89830FEF794
:101E1C00D9FD05464FF0B043D3F8983013F0020FBC
:101E2C001FD1FEF7CFFD401B0228F3D90320E1E0C0
:101E3C004FF0B042D2F8983023F00103C2F898303A
:101E4C00FEF7C0FD05464FF0B043D3F8983013F0C1
:101E5C00020F06D0FEF7B6FD401B0228F3D9032073
:101E6C00C8E0E36A002B00F0C4804FF0B0429168E8
:101E7C0001F00C01D268022B19D00C2900F0BD80A6
:101E8C004FF0B042136823F080731360FEF79AFD95
:101E9C0004464FF0B0431B6813F0007F00F09780AE
:101EAC00FEF790FD001B0228F3D90320A2E002F0FC
:101EBC000303206B83420AD00C2900F09C804FF066
:101ECC00B0431B6813F0806F22D0012092E002F027
:101EDC007003606B8342EFD1C2F30623A06B834285
:101EEC00EAD102F47813E06B8342E5D102F060632F
:101EFC00206C8342E0D102F06042636C9A42DBD1E9
:101F0C004FF0B0431B6813F0007F44D0002071E009
:101F1C004FF0B042136823F080731360FEF752FD4C
:101F2C0005464FF0B0431B6813F0007F06D0FEF758
:101F3C0049FD401B0228F4D903205BE04FF0B0426E
:101F4C00D36830491940236B606B0343A06B43EAA1
:101F5C000023E06B0343206C0343606C0343194381
:101F6C00D160136843F080731360D36843F08053DF
:101F7C00D360FEF727FD04464FF0B0431B6813F007
:101F8C00007F06D1FEF71EFD001B0228F4D90320AA
:101F9C0030E000202EE04FF0B0431A6842F080721F
:101FAC001A60DA6842F08052DA60FEF70BFD0446E4
:101FBC004FF0B0431B6813F0007F06D1FEF702FD13
:101FCC00031B022BF4D9032014E0002012E04FF085
:101FDC00B042D1680C4B0B40D36000200AE00120CA
:101FEC007047012006E0012004E0012002E00120FE
:101FFC0000E0002038BD0120FCE70120FAE700BF1B
:10200C00000400588C80C111FCFFFEEE002800F08B
:10201C00278170B50C460546934B1B6803F00703EC
:10202C008B422DD32B6813F0020F3FD12B6813F08A
:10203C00200F53D12B6813F0400F6AD12B6813F08B
:10204C00040F40F083802B6813F0080F40F097804A
:10205C002B6813F0010F00F0DE806B68022B00F090
:10206C00A880032B00F0AD80002B40F0B2804FF025
:10207C00B042126812F0020F40F0B1800120EEE085
:10208C00794A136823F007030B431360FEF79AFC9D
:10209C000646754B1B6803F00703A342C2D0FEF73C
:1020AC0091FC801B0228F4D90320D8E0AB684FF0D8
:1020BC00B0418A6822F0F00213438B60FEF782FC79
:1020CC0006464FF0B0439B6813F4803FAED1FEF749
:1020DC0079FC801B0228F4D90320C0E06B694FF017
:1020EC00B041D1F8082122F0F0021343C1F80831B5
:1020FC00FEF768FC06464FF0B043D3F8083113F4F2
:10210C00003F97D1FEF75EFC801B0228F3D9032019
:10211C00A5E0A9694FF0B042D2F8083123F00F03C3
:10212C0043EA1113C2F80831FEF74CFC06464FF097
:10213C00B043D3F8083113F4803F7FF47FAFFEF740
:10214C0041FC801B0228F2D9032088E0EB684FF099
:10215C00B0418A6822F4E06213438B60FEF732FCD4
:10216C0006464FF0B0439B6813F4003F7FF46BAF0F
:10217C00FEF728FC801B0228F3D903206FE02969A5
:10218C004FF0B042936823F4605343EAC103936069
:10219C00FEF718FC06464FF0B0439B6813F4802FF3
:1021AC007FF456AFFEF70EFC801B0228F3D90320F8
:1021BC0055E04FF0B042126812F4003F0FD10120ED
:1021CC004DE04FF0B042126812F0007F07D10120B1
:1021DC0045E04FF0B042126812F4806F42D04FF0DD
:1021EC00B0418A6822F0030213438B60FEF7EAFBCE
:1021FC0006464FF0B0439B6803F00C036A68B3EBE0
:10220C00820F08D0FEF7DEFB801B41F28833984228
:10221C00EFD9032023E0144B1B6803F00703A34200
:10222C0015D9114A136823F0070323431360FEF7F3
:10223C00C9FB05460C4B1B6803F00703A34206D0F1
:10224C00FEF7C0FB401B0228F4D9032007E0FFF780
:10225C0041FB064B1860FEF7BBFBFEF769FB70BD3C
:10226C00012070470120FAE70040005810000020C0
:10227C0008B5FFF72FFB4FF0B0439B68C3F3022365
:10228C00034A52F8233003F01F03D84008BD00BFA7
:10229C00F037000808B5FFF71DFB4FF0B0439B6803
:1022AC00C3F3C223034A52F8233003F01F03D84070
:1022BC0008BD00BFF03700084FF0B041D1F88830AE
:1022CC00020902F47F2223EA0203000100F47F20BA
:1022DC000343C1F88830704770B505464FF0B042E3
:1022EC00136823F080631360FEF76CFB04464FF019
:1022FC00B0431B6813F0006F06D0FEF763FB001BA6
:10230C000228F4D9032400E000240CB1204670BD4F
:10231C004FF0B0431A6922F4FE42296842EA0122C6
:10232C001A611A6922F4781269680A431A611A68E8
:10233C0042F080621A60FEF745FB06464FF0B04350
:10234C001B6813F0006F05D1FEF73CFB801B0228C5
:10235C00F4D90324002CD9D14FF0B0421369296968
:10236C000B431361D2E770B505464FF0B0421368CA
:10237C0023F080631360FEF725FB04464FF0B04357
:10238C001B6813F0006F06D0FEF71CFB001B022825
:10239C00F4D9032400E000240CB1204670BD4FF0AA
:1023AC00B0431A6922F4FE42296842EA01221A61FA
:1023BC001A6922F06062A9680A431A611A6842F02D
:1023CC0080621A60FEF7FEFA06464FF0B0431B68B7
:1023DC0013F0006F05D1FEF7F5FA801B0228F4D933
:1023EC000324002CD9D14FF0B042136929690B4357
:1023FC001361D2E770B505464FF0B042136823F075
:10240C0080631360FEF7DEFA04464FF0B0431B689E
:10241C0013F0006F06D0FEF7D5FA001B0228F4D992
:10242C00032400E000240CB1204670BD4FF0B043F3
:10243C001A6922F4FE42296842EA01221A611A69D9
:10244C0022F06042E9680A431A611A6842F080621D
:10245C001A60FEF7B7FA06464FF0B0431B6813F04C
:10246C00006F05D1FEF7AEFA801B0228F4D90324C5
:10247C00002CD9D14FF0B042136929690B43136179
:10248C00D2E770B50446036813F0400F2FD0036BEE
:10249C00B3F5800F14D00AD833B90430FFF71CFF02
:1024AC000646A0B1054624E001252E4621E0B3F5F1
:1024BC00000F18D0B3F5400F17D001252E4618E0A9
:1024CC004FF0B042D36843F48033D3600026236BC3
:1024DC004FF0B041D1F8882022F440021343C1F8E8
:1024EC008830002505E00026F1E70026EFE70025FF
:1024FC002E46236813F4006F0AD04FF0B043D3F884
:10250C00905005F44075236CAB4240F0B7803546D3
:10251C00236813F0010F09D0A3694FF0B041D1F833
:10252C00882022F003021343C1F88830236813F08B
:10253C00020F09D0E3694FF0B041D1F8882022F4A2
:10254C0040621343C1F88830236813F0100F0CD08D
:10255C00A16A4FF0B042D2F88830080C000423EA8C
:10256C00000343EA0143C2F88830236813F0200FBC
:10257C000CD0E16A4FF0B042D2F88830080C00045D
:10258C0023EA000343EA0143C2F88830236813F0BE
:10259C00040F40F0B480236813F0080F40F0B380B0
:1025AC00236813F4807F13D0636B4FF0B041D1F8E4
:1025BC00882022F040621343C1F88830636BB3F17A
:1025CC00006F00F0A480636BB3F1806F00F0A48007
:1025DC00236813F4007F17D0A36BB3F1804F05D0A1
:1025EC00B3F1004F02D0002B40F09E804FF0B04171
:1025FC00D1F8882022F040421343C1F88830A36BF5
:10260C00B3F1C05F00F0A280236813F4806F13D085
:10261C00E36B4FF0B041D1F8882022F040521343C5
:10262C00C1F88830E36BB3F1005F00F09680E36B88
:10263C00B3F1805F00F09680236813F4805F09D0BB
:10264C00636C4FF0B041D1F8942022F44042134314
:10265C00C1F89430236813F4005F0DD0E26C4FF096
:10266C00B043596A21F030010A435A62A26C596A8C
:10267C0021F003010A435A62284670BDFFF734F873
:10268C005DB9236C4FF0B041D1F8902022F4407228
:10269C001343C1F8903035463AE74FF0B043D3F8C6
:1026AC009020D3F8901041F48031C3F89010D3F8F7
:1026BC00901021F48031C3F8901022F44072216CF8
:1026CC000A43C3F89020D3F8903013F0010F12D0C6
:1026DC00FEF778F905464FF0B043D3F8903013F07D
:1026EC00020F0AD1FEF76EF9401B41F28833984273
:1026FC00F1D903250CE735460AE7354608E7206A89
:10270C00FFF7DAFD47E7606AFFF7D6FD48E7CB68CD
:10271C0043F08073CB6056E7201DFFF724FE0028A2
:10272C003FF456AF054653E723F080534FF0B042C9
:10273C00D2F8881021F04041C2F88810D2F88810E5
:10274C0021F040610B43C2F8883058E74FF0B0429B
:10275C00D36843F08073D36056E7CB6843F480337F
:10276C00CB6064E7201DFFF745FE00283FF464AF03
:10277C00054661E710B4036A046A24F0010404629C
:10278C00846924F0F00C4CEA021223F00A030B4388
:10279C00826103625DF8044B704710B4036A046AEB
:1027AC0024F010040462846924F4704C4CEA023264
:1027BC0023F0A00343EA0113826103625DF8044B2A
:1027CC007047836823F4401323F070030B4343F0EA
:1027DC00070383607047000090F83D30012B1DD13A
:1027EC00022380F83D3003680F4A934208D0B3F1BE
:1027FC00804F05D01A6842F001021A600020704721
:10280C0099680A4A0A40062A0AD0B2F5803F09D0D4
:10281C001A6842F001021A600020704701207047CC
:10282C000020704700207047002C01400700010079
:10283C0003681C4A904202D0B0F1804F03D123F0C0
:10284C0070034A681343174A90420AD0B0F1804F84
:10285C0007D002F5C052904203D002F5806290423C
:10286C0003D123F44073CA68134323F080034A69ED
:10287C0013438A68C2620A6882620A4A904207D08D
:10288C0002F5C052904203D002F58062904201D111
:10289C000A690263026842F004020260012242618A
:1028AC0003607047002C014060B310B5044690F8EB
:1028BC003D3013B3022384F83D30214651F8040B0C
:1028CC00FFF7B6FF012384F8483084F83E3084F8D3
:1028DC003F3084F8403084F8413084F8423084F83A
:1028EC00433084F8443084F8453084F8463084F81A
:1028FC00473084F83D30002010BD80F83C3000F0AB
:10290C006DFCD7E70120704710B4846824F47F4C29
:10291C0042EA03220A4342EA0C0282605DF8044B4D
:10292C007047000090F83C30012B76D010B504466F
:10293C00012380F83C30022380F83D300268906817
:10294C00374B034093600B68602B4CD023D8402B43
:10295C0054D011D8202B03D00AD80BB1102B05D191
:10296C0019462068FFF72DFF002028E0012026E003
:10297C00302BF5D0012022E0502B0AD1CA684968CF
:10298C002068FFF7F7FE50212068FFF71AFF0020A0
:10299C0015E0012013E0B3F5805F3AD0B3F5005F8A
:1029AC0014D0702B37D1CB684A6889682068FFF740
:1029BC00ABFF2268936843F07703936000200123F8
:1029CC0084F83D30002384F83C3010BDCB684A6855
:1029DC0089682068FFF798FF2268936843F4804366
:1029EC0093600020EBE7CA6849682068FFF7D5FEC2
:1029FC0060212068FFF7E5FE0020E0E7CA6849681F
:102A0C002068FFF7B7FE40212068FFF7DAFE0020B0
:102A1C00D5E70020D3E70120D1E70220704700BFA3
:102A2C008800CEFF90F83C20012A2BD030B403460E
:102A3C00012280F83C20022280F83D200068426888
:102A4C008468114DA84218D022F070020D682A43F8
:102A5C0042601A680C48824202D0B2F1804F04D115
:102A6C0024F08004896821439160012283F83D2081
:102A7C00002083F83C0030BC704722F470024D6893
:102A8C002A43E1E702207047002C0140026852E81B
:102A9C00003F23F4907342E800310029F6D102681C
:102AAC0002F1080353E8003F23F0805323F00103A5
:102ABC00083242E800310029F1D1C36E012B06D057
:102ACC002023C0F88C300023C3664367704702682C
:102ADC0052E8003F23F0100342E800310029F6D100
:102AEC00EEE7000070B5044683680269134342693F
:102AFC001343C269134301680868894A02401A43A8
:102B0C000A602268536823F44053E1680B43536016
:102B1C00A1692268834B9A4201D0236A19439368B6
:102B2C0023F06E4323F430630B4393602268D36A23
:102B3C0023F00F03616A0B43D36222687A4B9A42EB
:102B4C0014D0784B9A4225D0102376498A4240D033
:102B5C00E069B0F5004F7AD0013B072B00F2D4802E
:102B6C00DFE803F0A6A4D2ABD2D2D2AE4FF0B04382
:102B7C00D3F8883003F00303032B09D8DFE803F004
:102B8C0002041F060123E0E70423DEE70823DCE749
:102B9C001023DAE74FF0B043D3F8883003F44063E6
:102BAC00B3F5006F0DD005D86BB1B3F5806F0CD1B8
:102BBC000423CAE7B3F5406F09D10823C5E7022304
:102BCC00C3E70223C1E70023BFE71023BDE71023AF
:102BDC00BBE7082B00F28C80DFE803F0088A108A30
:102BEC000D8A8A8A05004FF4004008E0FFF740FB8D
:102BFC0028B9002089E0FEF70DFEF9E74B48626A20
:102C0C004B4B33F81220B0FBF2F3656805EB450132
:102C1C0099426FD8B3EB053F6ED800263346314648
:102C2C00FDF786FA090241EA106100026B08C01830
:102C3C002A46334641F10001FDF77AFAA0F54072BD
:102C4C003C4B9A425AD82368D86030465DE0013B31
:102C5C00072B55D8DFE803F02104542754545405AE
:102C6C003248626A324B33F81230B0FBF3F06268D0
:102C7C00530803EB4003B3FBF2F3A3F110014FF63F
:102C8C00EF7291423ED89AB222F00F02C3F3420384
:102C9C0013432268D360002037E0FFF7FBFA0028CB
:102CAC00DFD1002031E0FEF7B5FDF8E71F4809E061
:102CBC00FFF7F0FA30B9002027E0FEF7ABFDF9E79B
:102CCC004FF40040626A1A4B33F81230B0FBF3F049
:102CDC00636800EB5300B0FBF3F0A0F110024FF669
:102CEC00EF739A421AD8236880B2D86000200CE0A7
:102CFC0001200AE0012008E0012006E0012004E0A8
:102D0C00012002E0012000E001200123A4F86A3038
:102D1C00A4F8683000236367A36770BD0120F4E753
:102D2C00F369FFCF00800040003801400024F4001C
:102D3C0088370008FFFC0F00836A13F0080F06D0D9
:102D4C000268536823F40043816B0B435360836A1E
:102D5C0013F0010F06D00268536823F40033C16AE4
:102D6C000B435360836A13F0020F06D0026853685A
:102D7C0023F48033016B0B435360836A13F0040F0D
:102D8C0006D00268536823F48023416B0B435360D5
:102D9C00836A13F0100F06D00268936823F48053F3
:102DAC00C16B0B439360836A13F0200F06D002684B
:102DBC00936823F40053016C0B439360836A13F004
:102DCC00400F0AD00268536823F48013416C0B4304
:102DDC005360436CB3F5801F0BD0836A13F0800FE4
:102DEC0006D00268536823F40023C16C0B43536074
:102DFC0070470268536823F4C003816C0B43536023
:102E0C00EBE72DE9F84305460E4617469946DDF8E3
:102E1C0020802B68DC6936EA04040CBF01240024F2
:102E2C00BC4236D1B8F1FF3FF3D0FDF7CBFDA0EBA0
:102E3C000900404530D8B8F1000F2FD02B681A6824
:102E4C0012F0040FE5D0802EE3D0402EE1D0DA69E9
:102E5C0012F0080F11D1DA6912F4006FD9D04FF4C7
:102E6C0000621A622846FFF711FE2023C5F8903045
:102E7C00002385F8843003200CE008241C622846CB
:102E8C00FFF704FEC5F89040002385F8843001203C
:102E9C0000E00020BDE8F8830320FBE70320F9E7FE
:102EAC0030B583B004460023C0F89030FDF78AFD9E
:102EBC0005462268126812F0080F10D123681B68AF
:102ECC0013F0040F28D12023C4F88830C4F88C30B8
:102EDC000020E066206784F8840003B030BD6FF0FA
:102EEC007E430093034600224FF400112046FFF767
:102EFC0088FF0028E2D0226852E8003F23F08003CC
:102F0C0042E800310029F6D12023C4F88830002390
:102F1C0084F884300320E0E76FF07E4300932B4667
:102F2C0000224FF480012046FFF76BFF0028CAD027
:102F3C00226852E8003F23F4907342E800310029E4
:102F4C00F6D1226802F1080353E8003F23F0010395
:102F5C00083242E800310029F3D12023C4F88C3028
:102F6C00002384F884300320B7E778B310B5044607
:102F7C00D0F888300BB32423C4F888302268136847
:102F8C0023F001031360A36AE3B92046FFF7AAFDFF
:102F9C00012811D02268536823F4904353602268AF
:102FAC00936823F02A0393602268136843F00103AB
:102FBC0013602046FFF774FF10BD80F8843000F0DA
:102FCC0055F9D8E72046FFF7B7FEDEE7012070473A
:102FDC00436E2BB90123A0F86A30A0F86830704713
:102FEC0030B403689A68C2F342629968490F094D7C
:102FFC006B5CDB00084C615C93FBF1F3A0F86A306E
:10300C00AB5CDB00A25C93FBF2F3A0F8683030BC45
:10301C00704700BFA8370008A037000890F884302C
:10302C00012B18D0012380F884302423C0F8883079
:10303C0003681A68196821F00101196022F0005226
:10304C000023436601680A602022C0F8882080F8BB
:10305C008430184670470220704738B590F8843099
:10306C00012B1DD00446012380F884302423C0F8A2
:10307C00883003681D681A6822F001021A60026821
:10308C00936823F0604319439160FFF7A1FF236815
:10309C001D602023C4F88830002084F8840038BDDB
:1030AC000220FCE738B590F88430012B1DD0044683
:1030BC00012380F884302423C0F8883003681D680D
:1030CC001A6822F001021A600268936823F06063A8
:1030DC0019439160FFF77CFF23681D602023C4F81F
:1030EC008830002084F8840038BD0220FCE7FEE71D
:1030FC00FEE7FEE7FEE7FEE770477047704708B54E
:10310C00FDF754FC08BD0000164AD2F8883043F491
:10311C007003C2F888304FF0B0431A6842F00102D5
:10312C001A604FF4E0229A601968A2F1A262A2F22E
:10313C0005120A401A60D3F8942022F00502C3F855
:10314C009420D3F8982022F00102C3F89820064A64
:10315C00DA601A611A6822F480221A6000229A61DD
:10316C00704700BF00ED00E00010042200B589B0EC
:10317C0000230493059306930793019302930393FF
:10318C0014484FF0804202601F2242608360124A52
:10319C00C26003618361FFF787FB90B94FF48053E2
:1031AC00049304A90B48FFF7BDFB68B900230193F6
:1031BC00039301A90748FFF735FC40B909B05DF846
:1031CC0004FBFDF717FAE9E7FDF714FAEEE7FDF754
:1031DC0011FAF3E7B0000020A08601000368B3F1F8
:1031EC00804F00D0704782B04FF0B0439A6D42F0E0
:1031FC0001029A659B6D03F001030193019B02B0E0
:10320C007047000008B51748174B03604FF416536E
:10321C00436000238360C36003610C2242618361BD
:10322C00C361036243628362FFF79FFE70B90021A2
:10323C000C48FFF712FF60B900210A48FFF732FF74
:10324C0050B90848FFF7EAFE48B908BDFDF7D2F9B6
:10325C00EDE7FDF7CFF9EFE7FDF7CCF9F1E7FDF777
:10326C00C9F9F2E7FC0000200038014010B59CB011
:10327C00044600211791189119911A911B91502213
:10328C0003A800F06EF82268174B9A4201D01CB0CC
:10329C0010BD0123039303A8FFF7F3F808BB4FF00D
:1032AC00B0431A6E42F480421A661A6E02F48042DF
:1032BC000292029ADA6C42F00202DA64DB6C03F0DE
:1032CC0002030193019BC02317930223189300233D
:1032DC0019931A9307231B9317A90448FEF71CF99B
:1032EC00D5E7FDF787F9DAE700380140000400481C
:1032FC00D458C4500433C4188C42F9D370470360BB
:10330C0004308842FBD370470C488546FFF7FCFE1F
:10331C000B480C490C4A0023FFF7EDFF0B480C49F6
:10332C000C4A0023FFF7E7FF0B480C490023FFF77B
:10333C00E8FF00F01FF8FDF7C3F9FEE700000320DB
:10334C000800002014000020603800080000032052
:10335C00000003206C3800081400002090010020AD
:10336C00FEE702440346934200D1704703F8011B69
:10337C00F9E7000070B50D4B0D4D5B1B9C10002642
:10338C00A64209D100F096F90A4D0B4B5B1B9C1021
:10339C000026A64205D170BD55F8043B984701366E
:1033AC00EEE755F8043B98470136F2E75838000829
:1033BC0058380008583800085C3800082DE9F047E8
:1033CC00089D0F4604468C46002B48D18A4216466F
:1033DC0061D9B2FA82F34BB1C3F1200201FA03FCBA
:1033EC0020FA02F29E4042EA0C0C9C404FEA164E28
:1033FC00B7B2BCFBFEF1220C0EFB11CC42EA0C4224
:10340C0001FB07F0904209D9B21801F1FF3C80F0A2
:10341C00EE80904240F2EB8002393244121AA4B290
:10342C00B2FBFEF00EFB102244EA024400FB07F74D
:10343C00A74209D9341900F1FF3280F0DA80A74293
:10344C0040F2D7803444023840EA0140E41B0021AA
:10345C001DB1DC400023C5E90043BDE8F0878B4279
:10346C0006D90DB1C5E9000100210846BDE8F08779
:10347C00B3FA83F1002948D1BB4202D3824200F255
:10348C000781841A67EB030201209446002DE4D0D7
:10349C00C5E9004CE1E7002A00F09280B2FA82F311
:1034AC00002B40F0A8808A1A4FEA164E1FFA86FCB1
:1034BC000121200CB2FBFEF70EFB172240EA024260
:1034CC000CFB07F0904207D9B21807F1FF3802D273
:1034DC00904200F2E2804746121AA4B2B2FBFEF010
:1034EC000EFB102244EA02440CFB00FCA44507D955
:1034FC00341900F1FF3202D2A44500F2CB80104601
:10350C00A4EB0C0440EA0740A2E7C1F120068B4073
:10351C0022FA06FC4CEA030C07FA01F420FA06F333
:10352C00F7404FEA1C49234300FA01F81FFA8CFEBE
:10353C00B7FBF9F01C0C09FB107744EA074400FBBD
:10354C000EF7A74202FA01F20AD91CEB040400F1AF
:10355C00FF3A80F09B80A74240F298800238644486
:10356C00E41B9FB2B4FBF9F309FB134447EA044490
:10357C0003FB0EFEA64509D91CEB040403F1FF372F
:10358C0080F08280A6457FD9023B644443EA004028
:10359C00A4EB0E04A0FB02E7BC427346B94663D30E
:1035AC0060D05DB1B8EB030264EB090404FA06F6D3
:1035BC0022FA01F31E43CC40C5E9006400214CE71C
:1035CC006208480842EAC1710B0C43EA00438AB214
:1035DC0042EA0342B3FBF6F1E407B4463746B6467B
:1035EC001F23B0FBF6F0D21B41EA004161E76146B4
:1035FC0014E7104628E7C3F1200120FA01F29E409F
:10360C0027FA01F19F403A434FEA164E1FFA86FC07
:10361C00B1FBFEF70EFB1710110C41EA004107FB42
:10362C000CF8884504FA03F43AD9711807F1FF3005
:10363C0001D288451FD8A1EB0801B1FBFEF808FBAD
:10364C000CF70EFB181192B242EA0142BA422FD289
:10365C00B21808F1FF31C6D2BA42C4D2A8F10201A5
:10366C003244C0E7F0459CD2BEEB020367EB0C077B
:10367C000138B94695E7A6EB08084144B81EB1FBE2
:10368C00FEF808FB0CF7DCE73B467FE7504667E7A4
:10369C000846FBE63444023832E7023F32441BE76B
:1036AC00A1EB08013846B1FBFEF808FB0CF7C8E7A4
:1036BC00414698E7F8B500BFF8BC08BC9E46704779
:0C36CC00F8B500BFF8BC08BC9E46704773
:1036D8001200000024000000360000004000000036
:1036E800060000000C0000001000000000000000B0
:1036F80001000000020000000300000057656C6331
:103708006F6D6520746F20746865000053696D6F74
:103718006E2047616D6500005075736820546F20F6
:1037280053746172742100003120706C6179657284
:10373800204F52003220706C61796572733F00002F
:103748003C313E20706C61796572204F5200000058
:103758003C323E20706C61796572733F0000000056
:103768003120506C61796572204D6F6465000000EE
:103778003220506C61796572204D6F6465000000DD
:10378800010002000400060008000A000C001000F6
:103798002000400080000001080402040801010123
:1037A8000101010307010000A0860100400D03008C
:1037B800801A060000350C0040420F0080841E006D
:1037C80000093D0000127A000024F40000366E0162
:1037D8000048E801006CDC02000000000000000066
:1037E80000000000000000000000000000000000D1
:1037F80000000000000000000100000002000000BE
:1038080003000000040000000100000003000000A5
:103818000500000001000000010000000600000093
:103828000A00000020000000020000000400000060
:1038380008000000100000004000000080000000A8
:08384800000100000002000075
:0838500078FBFF7F010000007E
:0438580095010008CE
:04385C0071010008EE
:0C386000010000001000000000093D0005
:0400000508003315A7
:00000001FF
