:020000040800F2
:1000000000000320493D0008473A0008493A00082B
:100010004B3A00084D3A00084F3A00080000000033
:10002000000000000000000000000000513A00083D
:10003000533A000800000000553A0008573A0008FB
:10004000A13D0008A13D0008A13D0008A13D000818
:10005000A13D0008A13D0008A13D0008A13D000808
:10006000A13D0008A13D0008A13D0008A13D0008F8
:10007000A13D0008A13D0008A13D0008A13D0008E8
:10008000A13D0008A13D0008A13D0008A13D0008D8
:10009000A13D0008A13D0008A13D0008A13D0008C8
:1000A000A13D0008A13D0008A13D0008A13D0008B8
:1000B000613A0008A13D0008A13D0008A13D0008EB
:1000C000A13D0008A13D0008A13D0008A13D000898
:1000D000A13D0008A13D0008A13D0008A13D000888
:1000E000A13D0008A13D0008A13D0008A13D000878
:1000F000A13D0008A13D0008A13D0008A13D000868
:10010000A13D0008A13D0008A13D0008A13D000857
:10011000A13D0008A13D0008A13D0008A13D000847
:10012000A13D0008A13D0008A13D0008A13D000837
:0C013000A13D0008A13D0008A13D000811
:1001400001F0FF01102A2BDB10F0070F08D010F888
:10015000013B013A8B422DD010F0070F42B3F6D18C
:10016000F0B441EA012141EA014122F007047FF0A5
:1001700000070023F0E80256083C85EA010586EAFC
:10018000010685FA47F5A3FA87F586FA47F6A5FA38
:1001900087F68EB9EED1F0BC01F0FF0102F0070244
:1001A00032B110F8013B013A83EA010313B1F8D1EF
:1001B0000020704701387047002D06BF35460338D0
:1001C000073815F0010F07D1013015F4807F02BF09
:1001D000013015F4C03F0130F0BC0138704700BF5A
:1001E00053B94AB9002908BF00281CBF4FF0FF319E
:1001F0004FF0FF3000F00CB8ADF1080C6DE904CE03
:1002000004F0C6FFDDF804E0DDE9022304B0704726
:10021000704700BF10B5054C237833B9044B13B1B8
:100220000448AFF300800123237010BD700000204C
:10023000000000008854000808B5034B1BB10349B7
:100240000348AFF3008008BD0000000074000020E8
:100250008854000808B5002100F8041B4FF49C7274
:1002600003F04AFF08BD38B505460C460021084694
:1002700000F020FE284600F055FE0121002000F08D
:1002800019FE204600F04EFE4FF47A7000F04AFF4F
:1002900038BD0379012B04D000221EE00623037031
:1002A0007047002390F870209A420CDDC218117B31
:1002B00092F872209142F1D190F83A21013280F8FF
:1002C0003A210133EEE7704706230370704790F838
:1002D0003A31013380F83A31013290F87030013B05
:1002E00093420FDD831893F8721093F8D630994239
:1002F000EAD14379012BEAD090F83B31013380F801
:100300003B31E9E77047000070B5044600250BE07B
:1003100003F076FD434200F0030003F0030358BFEF
:10032000584263191873013594F87030AB42EFDC12
:10033000002510E0344E01224FF40061304601F0F8
:1003400082FDA06800F0EEFE00224FF4006130460E
:1003500001F079FD013594F87030AB4252DD63193C
:100360001B7B032B37D801A252F823F0350300087A
:100370007D0300089B030008B9030008234E0122F7
:100380002021304601F05FFDA06800F0CBFE002286
:100390002021304601F057FDDCE71B4E01220421ED
:1003A000304601F050FDA06800F0BCFE00220421A0
:1003B000304601F048FDCDE7154E012210213046B0
:1003C00001F041FDA06800F0ADFE00221021304692
:1003D00001F039FDBEE70C4E00224FF400613046BB
:1003E00001F031FD00222021084801F02CFD0022FF
:1003F0000421304601F027FD00221021044801F0BD
:1004000022FDA7E770BD00BF0004004800080048B7
:1004100000100048104B1B686BB9104B1B6873B978
:100420000F4B1B6883B90F4B1B6893B10D4B002218
:100430001A60032070470020074B18607047074B75
:1004400000221A6001207047054B00221A6002202A
:1004500070474FF0FF307047CC000020C8000020EC
:10046000C4000020C000002038B50546002400E08C
:10047000013495F87030A34216DD00230B4A136057
:100480000B4A126853624FF0FF300028F0DAFFF792
:10049000C1FF0028F9DB6B79013B642202FB0353A7
:1004A000234483F87200E3E738BD00BFD00000208A
:1004B00058010020F0B583B004460D460378092B9F
:1004C00000F26982DFE813F00A0040005100690081
:1004D000EB005C01D401370252025E0200F014FD11
:1004E000954E964B35460FCB07C52B801B0C05F858
:1004F000023F934F934A3B4607CA03C323F8022B9C
:10050000120C1A7039463046FFF7ADFE4FF4FA6010
:1005100000F008FE00F0F8FC8B4BB4460FCBACE8C3
:100520000700ACF800301B0C2B7000253D703946DD
:100530003046FFF798FE01232370844B1D60844BE7
:100540001B685D6203B0F0BD804B1B68632B06DC4B
:10055000284600F02DFC0028F6D0022323702378D3
:10056000022BEFD008232370ECE700F0CDFC724D96
:10057000784B93E8070085E80700714E764A3346CA
:1005800007CA03C323F8022B120C1A7031462846FF
:10059000FFF769FE03232370D4E7084600F0E4FB6D
:1005A0006E4B18706E4B1B68022B03DC6D4A127881
:1005B000012A29D06A4B00221A60684B1B785BB174
:1005C000684A1278934207D0012B26D0022B3ED0E6
:1005D000624B1A78634B1A70284600F0E9FB00283A
:1005E000B0D02379012B48D005232370012384F850
:1005F000713084F87030002384F83A3184F83B314C
:100600004FF47A73A3609DE70028D3D1534A0121A8
:1006100011700B44524A1360CFE700F075FC464F4F
:10062000514B3E460FCB07C63380454E4A4A3346B0
:1006300007CA03C323F8022B120C1A70314638463E
:10064000FFF711FE01232371444A1370C0E700F045
:100650005BFC394F3F4B93E8070087E80700DFF862
:10066000E0C0424B66460FCB07C633706146384642
:10067000FFF7F9FD02232371AAE704232370012366
:1006800063710023019301A9284600F083FBBDF8A4
:100690000400BDF80630584003F084FBA6E700F0E4
:1006A00033FC254E94F87130314A1121304603F065
:1006B000A9FC234F2F4B3D460FCB07C52B80394656
:1006C0003046FFF7D0FD4FF4FA7000F02BFD2046C6
:1006D000FFF71AFE00F018FC274B35460FCB07C575
:1006E00025F8023B1B0C2B7094F83A31234A112158
:1006F000384603F087FC39463046FFF7B4FD4FF427
:10070000FA7000F00FFD2046FFF7AEFE2378062BAF
:100710003FF418AF2046FFF7BCFD2378062B3FF4CB
:1007200011AF94F87130013384F8713094F870305F
:10073000013384F8703005E7AC000020CC54000889
:1007400098000020E0540008EC540008D00000207D
:1007500058010020FC5400080855000894000020AF
:10076000900000208C00002014550008245500083B
:1007700034550008405500085055000860550008E1
:1007800000F0C2FB854D94F87130854A112128464E
:1007900003F038FC834E0023337031462846FFF7C0
:1007A00062FD4FF4FA7000F0BDFC7F4B0FCB85E883
:1007B0000F0094F83A317D4A1121304603F022FCB3
:1007C00031462846FFF74FFD4FF4FA7000F0AAFCBF
:1007D000012363712046FFF747FE2378062B3FF481
:1007E000B1AE94F87130012B36D894F870300133E3
:1007F00084F8703000F088FB684D6D4B0FCB85E8B6
:100800000F00684E94F83B31684A1121304603F0DE
:10081000F9FB31462846FFF726FD4FF4FA7000F049
:1008200081FC022363712046FFF71EFE2378062B0E
:100830003FF488AE2046FFF72CFD2378062B3FF4CB
:1008400081AE94F87130013384F8713094F87030CF
:10085000013384F8703075E62046FFF71AFD2378DF
:10086000062BC2D094F83A31013384F83A31BCE710
:1008700000F04AFB2379012B37D04E4A474B07CA79
:1008800003C323F8022B120C1A7094F83A2194F83F
:100890003B319A4243D89A4247D2474B414D0FCB06
:1008A00007C52B803F4E3D4D31462846FFF7DBFC08
:1008B0004FF4FA6000F036FC94F83A313F4A1121C7
:1008C000284603F09FFB94F83B313D4A1121304606
:1008D00003F098FB31462846FFF7C5FC4FF4FA6059
:1008E00000F020FC072323702CE62C4D314A2B46C8
:1008F00007CA03C323F8022B120C1A70294E94F86E
:100900003A312E4A1121304603F07CFB314628460D
:10091000FFF7A9FC4FF4FA6000F004FCE2E7294B72
:10092000204D0FCB07C52B80BCE7274B1D4D0FCBB0
:1009300007C52B70B6E700F0E7FA184E234B93E893
:10094000070086E80700174F214B3D460FCB07C530
:100950002B8039463046FFF786FC012323700023A5
:100960001C4A13601C4A12685362EBE500F0CCFA93
:100970000A48002303700B490B70FFF774FC09232E
:100980002370DFE5084600F013FA00283FF4DAADE3
:1009900000232370D6E508230370D3E5AC000020C4
:1009A00034550008980000206C5500086055000878
:1009B0007C5500088C550008B8550008985500086B
:1009C000D8550008A8550008C8550008E855000883
:1009D000F4550008D00000205801002008B5036835
:1009E000B3F1804F00D008BD1B4A13680133136078
:1009F0004FF48051194801F01FFA28B9184B1B68B1
:100A000013B9174B01221A6010214FF0904001F0EA
:100A100013FA28B9134B1B6813B9124B01221A6041
:100A200040214FF0904001F007FA28B90E4B1B68A7
:100A300013B90D4B01221A6020214FF0904001F0B4
:100A4000FBF90028CFD1094B1B68002BCBD1074BFA
:100A500001221A60C7E700BFD0000020000800484C
:100A6000CC000020C8000020C4000020C0000020EE
:100A700000B587B00023009301930293039304937E
:100A800005931948194A026043608360C36003619B
:100A900004224261037643760122C26180F820304D
:100AA0008362C36280F83030436380F8383000F0EE
:100AB0007BFB90B90E4B0093062301930023029316
:100AC0007F2203920422049205936946064800F0AF
:100AD000B5FC28B907B05DF804FB00F02DFAE9E792
:100AE00000F02AFAF6E700BFD4000020000004500E
:100AF0008000501D10B59CB004460021179118913C
:100B000019911A911B91502203A803F0F5FA22685B
:100B10001E4B9A4201D01CB010BD4FF4806303936A
:100B2000062304934FF4003305934FF000730693AC
:100B30004FF0005307934FF080530893129303A88C
:100B400002F055F8F8B94FF0B043DA6C42F40052B5
:100B5000DA64DA6C02F400520292029ADA6C42F021
:100B60000102DA64DB6C03F001030193019B0C23A7
:100B70001793032318930023199317A94FF090405C
:100B800001F080F8C7E700F0D7F9DCE70000045077
:100B90002DE9F0438BB005AD00240594069407942D
:100BA000089409944FF0B043DA6C42F00402DA641E
:100BB000DA6C02F004020492049ADA6C42F0010248
:100BC000DA64DA6C02F001020392039ADA6C42F002
:100BD0000202DA64DA6C02F002020292029ADA6C21
:100BE00042F01002DA64DB6C03F010030193019B06
:100BF000364F22462F21384601F025F9224603219F
:100C00004FF0904001F01FF9DFF8C490224640F603
:100C10000401484601F017F9DFF8B8802246102198
:100C2000404601F010F92F230593012606960794FC
:100C300008942946384601F025F8032305930696C3
:100C40000794089429464FF0904001F01BF8702358
:100C500005930694079429464FF0904001F012F84E
:100C600040F60403059306960794089429464846DF
:100C700001F008F810230593069607940894294676
:100C8000404600F0FFFF402305930694079629464F
:100C9000384600F0F7FF4FF4C05305930223069344
:100CA000079408940A23099329464FF0904000F0D6
:100CB000E9FF4FF48053059306940794294638467C
:100CC00000F0E0FF0BB0BDE8F08300BF0008004873
:100CD000000400480010004870B586B004460026A5
:100CE00000960196029603960496059600910622B8
:100CF00001920292694600F0A1FB354603E02046CE
:100D000000F022FF01350F2D0DDC204600F096FE8D
:100D10000A21204600F034FB0028F0D1204600F0E4
:100D200089FB0644EBE7C6F30F1006B070BD016007
:100D300042608360009BC360BDF80430038270474B
:100D400070B506460024254605E071683068FFF757
:100D5000C3FF054401341F2CF7DD6D09014B1D80D5
:100D600070BD00BF3801002008B541680068FFF77A
:100D7000B3FF074B1B88C01A502804DC10F1500F3A
:100D800003DB002008BD0120FCE70220FAE700BFDA
:100D90003801002038B504460D4641680068FFF769
:100DA0009BFF2880A1682068FFF796FF688038BD08
:100DB00038B50446018AC06801F03EF810B100253C
:100DC000284638BD0546142000F0ACF9218AE068B9
:100DD00001F032F80028F3D10125F1E7034B1A683E
:100DE00000235362536A8342FCD3704758010020AA
:100DF00008B500F097F908BD08B5012202214FF0AF
:100E0000904001F020F81420FFF7E8FF00220221B3
:100E10004FF0904001F017F81420FFF7DFFF08BDF6
:100E200038B504460D4D00F001020121284601F0BD
:100E30000AF8C4F340020221284601F004F8C4F382
:100E400080020421284600F0FEFFC4F3C0020821FE
:100E5000284600F0F8FFFFF7CFFF38BD0008004834
:100E600010B50446002201214FF0904000F0EBFF46
:100E70002009FFF7D5FF2046FFF7D2FF2820FFF714
:100E8000ADFF10BD10B50446012211464FF0904051
:100E900000F0D9FF2009FFF7C3FF2046FFF7C0FF8E
:100EA000002201214FF0904000F0CDFF2C20FFF7F1
:100EB00095FF10BD08B58901C9B2084460F07F00F4
:100EC000C0B2FFF7CDFF08BD08B51E20FFF790FFA9
:100ED0000320FFF7A5FF0520FFF78AFF0320FFF798
:100EE0009FFF9620FFF77AFF0320FFF799FF02206C
:100EF000FFF796FF2820FFF7B3FF0C20FFF7B0FFA6
:100F00000620FFF7ADFF08BD08B50120FFF7A8FFD9
:100F10000220FFF76DFF0220FFF7A2FF0220FFF77C
:100F200067FF08BD10B5044602E00134FFF7AAFFD1
:100F300020780028F9D110BD72B6FEE710B59AB03E
:100F400008AC48220021204603F0D6F80023019384
:100F50000293039304930593069307934FF0B041D4
:100F6000CA6822F0700242F01002CA60CA6822F019
:100F7000030242F00102CA6001F580610A6822F4AE
:100F8000C06242F400720A600A6802F4C062009211
:100F9000009A222208924FF480720B9201220F9243
:100FA00040220C921093A02211921393204601F03C
:100FB00057F880B96F23019300230293039304939E
:100FC0000593802206920793012101A801F0D4FB2A
:100FD00018B91AB010BDFFF7AFFFFFF7ADFF10B59E
:100FE00094B050220021684603F086F84FF4005375
:100FF0000093684601F0FBFD08B914B010BDFFF77F
:101000009BFF000000B5D3B000F05EF8FFF796FF3D
:10101000FFF7E5FFFFF7BCFDFFF72AFD02F012FE28
:1010200002F0B6FD0E4801F08DFFFFF74DFFFFF710
:101030006BFF0C4C402301930B4B00930B4B0C4A62
:101040000C492046FFF773FE2046FFF779FE03A800
:10105000FFF700F9034903A8FFF72CFAFAE700BFEE
:10106000580100203C0100200008004800018021B8
:101070008000501DD4000020114B1B780BB90120BB
:10108000704710B5044600F0DBFF0D4B1A784FF4A3
:101090007A73B3FBF2F3B0FBF3F000F0DFFD68B955
:1010A0000F2C01D901200AE0002221464FF0FF3029
:1010B00000F0C0FD034B1C60002000E0012010BDCB
:1010C000080000200C00002010B5094A136843F402
:1010D00080731360032000F09BFD0020FFF7CCFF1E
:1010E00010B10124204610BD044600F0B1FEF9E71E
:1010F00000400058034B1B78034A11680B441360EF
:10110000704700BF0800002050010020014B186804
:10111000704700BF50010020014B1868704700BFA6
:101120000C00002038B50446FFF7F0FF0546B4F187
:10113000FF3F02D0044B1B781C44FFF7E7FF401B26
:10114000A042FAD338BD00BF0800002010B43030F0
:101150000B0A9B0003F00C03C45801F01F014FF071
:101160001F0C0CFA01FC24EA0C0CC2F384628A40C6
:101170004CEA0202C2505DF8044B704710B41430C0
:101180004B0E9B0003F00403C458C1F304514FF00D
:10119000070C0CFA01FC24EA0C0C8A404CEA02020F
:1011A000C2505DF8044B704730B583B00023019303
:1011B000002800F0D8800446436D13B323689A6872
:1011C00012F0005F05D09A6822F0204222F03F0220
:1011D0009A602268936813F0805F1FD1936823F0B0
:1011E000104323F03F0343F0805393605F4B1B6831
:1011F0009B095F4AA2FB03239B0901335B00019318
:1012000009E0FFF777FC0023A36584F85030D5E7A9
:10121000019B013B0193019B002BF9D1226893684C
:1012200013F0805F78D1636D43F010036365A36DA5
:1012300043F00103A3650120936813F0040300D079
:101240000123616D11F0100F40F08680002B40F0FB
:101250008380636D23F4817343F0020363659368B5
:1012600013F0010F0BD1434B9B6813F0010F06D114
:10127000636841498A6822F47C1213438B60627E62
:10128000636B43EA4233E2681343A268134394F862
:10129000202043EA0243012A40D0A26A22B102F48C
:1012A0007072E16A0A4313432168CD68334A2A40C9
:1012B0001A43CA6021688B6813F0040300D001232D
:1012C0008A6812F0080200D00122B3B9AAB9237EBD
:1012D00094F83020520042EA8332CB6823F48043F2
:1012E00023F002031343CB6094F83830012B1AD05B
:1012F0002268136923F0010313612369012B22D0B3
:101300002268136B23F00F031363636D23F0030351
:1013100043F00103636524E000208DE7626A013A2F
:1013200043EA4243B9E721680B696FF38A03E26B32
:10133000256C2A43656C2A43A56C2A43134343F06A
:1013400001030B61D9E721680B6B23F00F03E269FE
:10135000013A13430B63D8E7636D43F010036365F1
:10136000012003B030BD0120FBE700BF10000020CA
:10137000632D3E05000004500003045007C0F0FF39
:10138000F8B504460E464569082D05D00368DB68AC
:1013900013F0010F1ED10425FFF7B8FE074623689E
:1013A0001A682A421CD1B6F1FF3FF8D0FFF7AEFE13
:1013B000C31BB34201D8002EF1D123681B682B4216
:1013C000EDD1636D43F004036365002384F850306E
:1013D000032004E0436D43F0200343650120F8BD82
:1013E000626D42F400726265DA6812F4406F11D1E6
:1013F000627E7AB91A6812F0080F0BD0626D22F47F
:1014000080726265626D12F4805F03D1626D42F09A
:1014100001026265082D07D0DA6812F4804F07D107
:101420000C221A600020DAE708221A600020D6E7B2
:101430000020D4E70368186C70470000F0B583B053
:101440000023019390F85030012B00F002820446F3
:101450000D46012380F850300068836813F0040FB4
:1014600009D0636D43F0200363650120002384F8F5
:10147000503003B0F0BD0A684968FFF767FE206886
:10148000836813F0040300D00123826812F008027D
:1014900000D001220BB9002A3AD02268936813F0D9
:1014A000010F40F0D0812B68E868D2F8B010C3F388
:1014B000120621EA060100F0180CA74820FA0CF0E9
:1014C0000340C3F312030B43C2F8B030EA68A34BE6
:1014D0009A4200F0A2802B68A14A134200F0B58125
:1014E000A04A926802F0E0709F49896811F0010FEC
:1014F00040F055819D498B4200F057819C498B42B9
:1015000000F07A819B498B4200F08A810020ADE790
:10151000AA682968FFF732FE69692268D368C3F3B5
:10152000C1035B009940286904280ED02E68603200
:1015300052F82070904B3B4006F0F84631430B4385
:1015400043F0004342F82030A7E7136E116EC1F359
:1015500084612B68C3F3120080BBC3F38463994298
:1015600034D021684B6E4A6EC2F384622B68C3F399
:10157000120080BBC3F384639A4234D021688B6E1F
:101580008A6EC2F384622B68C3F3120080BBC3F37C
:1015900084639A4234D02168CB6ECA6EC2F38462EF
:1015A0002B68C3F3120080BBC3F384639A427FF4B9
:1015B00074AFCB6E23F00043CB666EE793FAA3F3D0
:1015C00013B1B3FA83F3CAE72023C8E7136E23F0FD
:1015D00000431366C5E793FAA3F313B1B3FA83F399
:1015E000CAE72023C8E74B6E23F000434B66C5E7EC
:1015F00093FAA3F313B1B3FA83F3CAE72023C8E73E
:101600008B6E23F000438B66C5E793FAA3F313B107
:10161000B3FA83F3CAE72023C8E720682B68C3F333
:1016200012063EBB9A0E013202F01F02092A8CBF3D
:1016300000220122002A55D05EBB990E0131890695
:1016400001F0F8418EBB4FEA936C0CF1010C0CF0E9
:101650001F0C012202FA0CF21143AEBB9B0E0133A8
:1016600003F01F0303EB43031B051943AA68FFF7AD
:1016700085FD30E793FAA3F24AB1B2FA82F2013261
:1016800002F01F02092A8CBF00220122D2E7202289
:10169000F5E793FAA3F131B1B1FA81F1013189068D
:1016A00001F0F841CEE72021F8E793FAA3F24AB11E
:1016B000B2FA82F2013202F01F024FF0010C0CFA72
:1016C00002F2C9E72022F5E793FAA3F343B1B3FA94
:1016D00083F3013303F01F0303EB43031B05C4E74C
:1016E0002023F6E7E6B9990E0131890601F0F841A9
:1016F00016BB4FEA936C0CF1010C0CF01F0C01228D
:1017000002FA0CF21143CEBB9B0E013303F01F0310
:1017100003EB43031E3B1B0543F000731943A5E78E
:1017200093FAA3F131B1B1FA81F10131890601F0E7
:10173000F841DDE72021F8E793FAA3F24AB1B2FAC3
:1017400082F2013202F01F024FF0010C0CFA02F299
:10175000D8E72022F5E700BFFFFF070000007F4029
:10176000000008800003045000000450000052C72D
:10177000000084CB0100008000F0FF0393FAA3F384
:101780005BB1B3FA83F3013303F01F0303EB4303AD
:101790001E3B1B0543F00073C0E72023F3E7636D96
:1017A00043F020036365012060E612F4000F7FF42C
:1017B000A5AE2268284B9A4201D0002056E640F49C
:1017C000000326498A6822F0E07213438B60244BA1
:1017D0001B689B09234AA2FB03239B09013303EBEC
:1017E00043039B00019302E0019B013B0193019B9A
:1017F000002BF9D1002039E612F0807F7FF482AE11
:101800002268154B9A4201D000202FE640F08073E9
:1018100012498A6822F0E07213438B60002025E6AB
:1018200012F4800F13D122680B4B9A4201D0002092
:101830001CE640F4800309498A6822F0E0721343F1
:101840008B60002012E6002010E600200EE600204B
:101850000CE602200DE600BF000004500003045017
:1018600010000020632D3E0570B5044603689A6899
:1018700012F0040200D00122986810F0080000D095
:1018800001200AB900286DD0DA6812F0007F04D078
:10189000208B40F2011290424ED0022912D02368D0
:1018A0009A6812F0040F0BD09A6812F0020F07D159
:1018B0009A6822F0004222F03F0242F010029A6041
:1018C000012947D023689A6812F0080F0BD09A6854
:1018D00012F0020F07D19A6822F0004222F03F0274
:1018E00042F020029A60022936D0032936D10C2515
:1018F000FFF70CFC064623689B682B4230D0FFF7AD
:1019000005FC801B0528F6D923689B682B42F2D082
:10191000636D43F010036365A36D43F00103A3659A
:1019200001201EE0636D43F010036365A36D43F077
:101930000103A365012014E00022196811F0400F93
:1019400004D109498A42EDD80132F6E740221A60F3
:101950000121A4E70425CBE70825C9E70425C7E74B
:10196000002070BD0020FCE7FFFF3FA330B583B02F
:101970000023019303689A6812F0010F52D10446C4
:1019800099682A4A114216D19A6822F0004222F040
:101990003F0242F001029A60254B9B6813F4000F4E
:1019A00019D0244B1B689B09234AA2FB03239B09E4
:1019B000013301930CE0436D43F010034365836DE5
:1019C00043F00103836501202DE0019B013B01935E
:1019D000019B002BF9D1FFF799FB054604E0FFF7C7
:1019E00095FB431B022B11D823681A6812F0010FD4
:1019F00016D19A6812F0010FF1D19A6822F00042D4
:101A000022F03F0242F001029A60E8E7636D43F082
:101A100010036365A36D43F00103A365012002E099
:101A2000002000E0002003B030BD00BF3F00008078
:101A30000003045010000020632D3E0503689B68DE
:101A400013F0040F32D110B5044690F85030012B3A
:101A50002ED0012380F85030FFF788FF10BB636D54
:101A600023F4706323F0010343F480736365636DB3
:101A700013F4805F13D0A36D23F00603A3652368DE
:101A80001C221A60002384F850302268936823F0E7
:101A9000004323F03F0343F00403936010BD002391
:101AA000A365ECE7002384F85030F7E70220704785
:101AB0000220F3E738B504460268936813F0020386
:101AC00000D00123916811F0010F39D0002B39D1DA
:101AD000936803F00D03012B09D0636D43F01003ED
:101AE0006365A36D43F00103A365012029E09368BA
:101AF00023F0004323F03F0343F002039360236885
:101B000003221A60FFF702FB054623689B6813F067
:101B1000010F13D0FFF7FAFA401B0228F5D923680A
:101B20009B6813F0010FF0D0636D43F01003636501
:101B3000A36D43F00103A365012002E0002000E053
:101B4000002038BD0020FCE790F85030012B1AD05F
:101B500010B50446012380F850300321FFF784FEBE
:101B600018B1002384F8503010BD2046FFF7A2FFC3
:101B70000028F6D1636D23F4885323F0010343F06A
:101B800001036365EDE7022070470000002807DBD2
:101B900000F01F02400901239340024A42F820301E
:101BA000704700BF00E100E0002808DB0901C9B26E
:101BB00000F1604000F5614080F80013704700F0CC
:101BC0000F000901C9B2014B1954704714ED00E030
:101BD00000B500F00700C0F1070CBCF1040F28BFEE
:101BE0004FF0040C031D062B0FD9C31E4FF0FF3E10
:101BF0000EFA0CF021EA000199400EFA03FE22EAE7
:101C00000E0241EA02005DF804FB0023EEE700004B
:101C1000074AD36823F4E0631B041B0C000200F4A2
:101C2000E060034343F0BF6343F40033D360704785
:101C300000ED00E010B50446054BD868C0F3022063
:101C4000FFF7C6FF01462046FFF7AEFF10BD00BFFD
:101C500000ED00E008B5FFF799FF08BD0138B0F1CD
:101C6000807F0BD24FF0E0235861054AF02182F8C3
:101C700023100020986107221A61704701207047E5
:101C800000ED00E0F0B5002366E085685E00032407
:101C9000B44025EA0405CC68B4402C438460456810
:101CA00025EA0C054C68C4F300149C402C434460A6
:101CB00063E0DD08083550F8254003F0070C4FEAD3
:101CC0008C0C4FF00F0E0EFA0CFE24EA0E0E0C696F
:101CD00004FA0CF444EA0E0440F8254064E00424BD
:101CE00000E0002404FA0EF42C430CF1020C4F4DDA
:101CF00045F82C404E4C2568D44325EA02064F682F
:101D000017F4801F01D042EA0506494D2E606D6828
:101D100004EA05064F6817F4001F01D042EA0506E1
:101D2000434D6E60D5F8805004EA05064F6817F4FD
:101D3000803F01D042EA05063D4DC5F88060D5F8E8
:101D400084502C404E6816F4003F01D042EA05044E
:101D5000374AC2F8844001330A6832FA03F464D087
:101D60004FF0010C0CFA03FC1CEA0202F3D04C68A1
:101D700004F00304013C012C87D94C6804F00304EF
:101D8000032C0CD0C4685D004FF0030C0CFA05FC6A
:101D900024EA0C0C8C68AC4044EA0C04C4604C6827
:101DA00004F00304022C84D004684FEA430E4FF081
:101DB000030C0CFA0EFC24EA0C0C4C6804F003042F
:101DC00004FA0EF444EA0C0404604C6814F4403F36
:101DD000C1D04FEA930C0CF10205144C54F8255075
:101DE00003F0030E4FEA8E0E0F2404FA0EF425EAD8
:101DF0000405B0F1904F3FF474AF0E4CA0420ED0EA
:101E000004F58064A0420CD004F58064A0420AD09E
:101E100004F58064A0423FF462AF072462E7012426
:101E200060E702245EE703245CE7F0BD00000140A8
:101E300000080058000400480369194201D001203D
:101E40007047002070470AB1816170478162704716
:101E500070470000024A136843F4807313607047B0
:101E600000040058024B186800F4C060704700BFBF
:101E70000004005830B58DB005468E462B4C94E8D2
:101E80000F000DF1300C0CE90F0005AB04F110024E
:101E900007CA83E807000DF1040C1C3494E80F0016
:101EA0008CE80F00BEF5007F07D0002314E00CAAD9
:101EB00002EB830353F82C5C1EE00023032B08D8AD
:101EC0000CAA02EB830252F8102CAA42EFD2013383
:101ED000F4E7002510E00133022B0CD80CAA02EB2A
:101EE000830252F81C2CAA42F5D30CAA02EB8303FE
:101EF00053F82C5C00E000250D4A136823F007031B
:101F00002B431360FFF702F90446094B1B6803F0EB
:101F10000703AB4206D0FFF7F9F8001B0228F4D9FB
:101F2000032000E000200DB030BD00BFA054000829
:101F30000040005810B5B02816D90E4BDC6A4FF09F
:101F4000B043D3F8083103F00F030B4A52F82330A3
:101F5000B4FBF3F4FFF786FF0146084BA3FB043400
:101F6000A00CFFF787FF10BDC0F30310014B53F81F
:101F70002040E4E72C5600088C56000883DE1B4303
:101F80004FF0B0439B6813F00C030DD14FF0B043FA
:101F90001B6803F0F003B02B04D81B09254A52F844
:101FA00023007047B023F8E7042B3ED0082B10D055
:101FB0004FF0B043DB6803F00303022B31D0032B57
:101FC0000FD14FF0B0431B6813F4801F2BD11A4878
:101FD00012E04FF0B0431B6813F4801F27D017485E
:101FE00070474FF0B0431B6803F0F003B02B16D8D6
:101FF0001B09104A52F823004FF0B042D368C3F3D4
:10200000062303FB00F0D368C3F302130133B0FBD4
:10201000F3F0D3685B0F0133B0FBF3F07047B023EC
:10202000E6E70648E8E70548E6E70448704702485F
:10203000704700BF2C5600080048E8010024F40057
:1020400008B5FFF79DFF4FF0B0439B68C3F3031340
:10205000024A52F82330B0FBF3F008BD8C5600085A
:10206000002800F0728338B50446036813F0200F8F
:102070002DD04FF0B0429368D26802F0030213F003
:102080000C0358D00C2B54D0E369002B00F0A08037
:102090004FF0B042136843F001031360FFF736F8C6
:1020A00005464FF0B0431B6813F0020F00F0888024
:1020B000636A4FF0B042116821F0F0010B431360E6
:1020C000216A536823F47F4343EA01235360236862
:1020D00013F0010F00F09A804FF0B042936803F0C4
:1020E0000C03D26802F00302082B00F08B800C2B4B
:1020F00000F085806368B3F5803F00F0B0804FF05A
:10210000B042136823F4803313606368002B00F03F
:10211000AD80FEF7FBFF05464FF0B0431B6813F49C
:10212000003F73D1FEF7F2FF401B6428F4D903206F
:1021300016E3012AA8D1E369002B00F00883606A46
:102140004FF0B0431B6803F0F003B02B21D8984246
:1021500021D9FFF7EFFE002840F0FB82636A4FF0C1
:10216000B042116821F0F0010B431360216A5368FB
:1021700023F47F4343EA01235360FFF761FFBF4B22
:102180001860BF4B1868FEF777FF00289FD001202A
:10219000E6E2B023DBE74FF0B042136823F0F00330
:1021A00018431060216A536823F47F4343EA0123F4
:1021B0005360606AFFF7BEFE0028DED00120CFE248
:1021C000FEF7A4FF401B02287FF66BAF0320C7E297
:1021D0004FF0B042136823F001031360FEF796FF3F
:1021E00005464FF0B0431B6813F0020F3FF46FAF8A
:1021F000FEF78CFF401B0228F3D90320B0E2032A2C
:102200007FF478AF6368002B00F0A582236813F099
:10221000020F54D04FF0B042936803F00C03D26821
:1022200002F00302042B33D00C2B2FD0E368002BD9
:1022300071D04FF0B042136843F480731360FEF71F
:1022400065FF05464FF0B0431B6813F4806F2DD136
:10225000FEF75CFF401B0228F4D9032080E24FF018
:10226000B042136843F4803313604EE7FEF74EFF2D
:1022700005464FF0B0431B6813F4003FC6D0FEF78D
:1022800045FF401B6428F4D9032069E2022ACDD11E
:10229000E368002B00F0618221694FF0B04253687F
:1022A00023F0FE4343EA0163536008E021694FF0E5
:1022B000B042536823F0FE4343EA0163536023684E
:1022C00013F0180F00F0DE806269002A00F0A3808E
:1022D00013F0100F70D04FF0B043D3F8943013F0D8
:1022E000020F2ED14FF0B042D2F8943043F00103E8
:1022F000C2F89430FEF70AFF05464FF0B043D3F81A
:10230000943013F0020F1CD1FEF700FF401B02288F
:10231000F3D9032024E24FF0B042136823F4807312
:102320001360FEF7F3FE05464FF0B0431B6813F44D
:10233000806FC4D0FEF7EAFE401B0228F4D90320C8
:102340000EE24FF0B042D2F8943043F00403C2F8EA
:102350009430FEF7DBFE05464FF0B043D3F89430DF
:1023600013F0080F06D1FEF7D1FE401B0328F3D966
:102370000320F5E1A1694FF0B042D2F8943023F484
:10238000706343EA0123C2F89430D2F8943023F00A
:102390000103C2F89430FEF7B9FE05464FF0B04392
:1023A000D3F8943013F0020F6CD0FEF7AFFE401B51
:1023B0000228F3D90320D3E14FF0B042D2F8943091
:1023C00043F00103C2F89430FEF7A0FE05464FF03B
:1023D000B043D3F8943013F0020F06D1FEF796FE07
:1023E000401B0228F3D90320BAE14FF0B042D2F8E3
:1023F000943023F00403C2F894304FF0B043D3F884
:10240000943013F0080F3DD0FEF780FE401B0328E8
:10241000F3D90320A4E14FF0B042D2F8943023F076
:102420000403C2F89430FEF771FE05464FF0B04346
:10243000D3F8943013F0080F18D14FF0B042D2F80F
:10244000943023F00103C2F89430FEF75FFE054696
:102450004FF0B043D3F8943013F0020F12D0FEF7D0
:1024600055FE401B0228F3D9032079E1FEF74EFE0A
:10247000401B0328DAD9032072E100BF10000020BE
:102480000C000020236813F0040F68D0B74B1B68C2
:1024900013F4807F27D0A368012B35D0052B3CD0C7
:1024A0004FF0B043D3F8902022F00102C3F89020FF
:1024B000D3F8902022F00402C3F89020A368DBB385
:1024C000FEF724FE05464FF0B043D3F8903013F0EA
:1024D000020F44D1FEF71AFE401B41F288339842A6
:1024E000F1D903203CE1FFF7B5FCFEF70FFE0546EE
:1024F0009E4B1B6813F4807FCDD1FEF707FE401B77
:102500000228F5D903202BE14FF0B042D2F89030E9
:1025100043F00103C2F89030D0E74FF0B043D3F856
:10252000902042F00402C3F89020D3F8902042F0AB
:102530000102C3F89020C1E7FEF7E8FD05464FF021
:10254000B043D3F8903013F0020F08D0FEF7DEFD51
:10255000401B41F288339842F1D9032000E12368FF
:1025600013F0400F33D0A36AC3B14FF0B042D2F89A
:10257000983043F00103C2F89830FEF7C7FD0546D6
:102580004FF0B043D3F8983013F0020F1FD1FEF78D
:10259000BDFD401B0228F3D90320E1E04FF0B0421B
:1025A000D2F8983023F00103C2F89830FEF7AEFD60
:1025B00005464FF0B043D3F8983013F0020F06D021
:1025C000FEF7A4FD401B0228F3D90320C8E0E36A0C
:1025D000002B00F0C4804FF0B042916801F00C0174
:1025E000D268022B19D00C2900F0BD804FF0B04208
:1025F000136823F080731360FEF788FD04464FF0E4
:10260000B0431B6813F0007F00F09780FEF77EFD5B
:10261000001B0228F3D90320A2E002F00303206B81
:1026200083420AD00C2900F09C804FF0B0431B6815
:1026300013F0806F22D0012092E002F07003606BF3
:102640008342EFD1C2F30623A06B8342EAD102F4A6
:102650007813E06B8342E5D102F06063206C834223
:10266000E0D102F06042636C9A42DBD14FF0B0439C
:102670001B6813F0007F44D0002071E04FF0B0429F
:10268000136823F080731360FEF740FD05464FF09A
:10269000B0431B6813F0007F06D0FEF737FD401BE8
:1026A0000228F4D903205BE04FF0B042D3683049F0
:1026B0001940236B606B0343A06B43EA0023E06B7C
:1026C0000343206C0343606C03431943D1601368D8
:1026D00043F080731360D36843F08053D360FEF7F8
:1026E00015FD04464FF0B0431B6813F0007F06D180
:1026F000FEF70CFD001B0228F4D9032030E0002077
:102700002EE04FF0B0431A6842F080721A60DA6827
:1027100042F08052DA60FEF7F9FC04464FF0B04315
:102720001B6813F0007F06D1FEF7F0FC031B022BA1
:10273000F4D9032014E0002012E04FF0B042D16839
:102740000C4B0B40D36000200AE0012070470120B1
:1027500006E0012004E0012002E0012000E000206A
:1027600038BD0120FCE70120FAE700BF0004005853
:102770008C80C111FCFFFEEE002800F0278170B5AF
:102780000C460546934B1B6803F007038B422DD381
:102790002B6813F0020F3FD12B6813F0200F53D199
:1027A0002B6813F0400F6AD12B6813F0040F40F030
:1027B00083802B6813F0080F40F097802B6813F08C
:1027C000010F00F0DE806B68022B00F0A880032B65
:1027D00000F0AD80002B40F0B2804FF0B0421268A4
:1027E00012F0020F40F0B1800120EEE0794A136848
:1027F00023F007030B431360FEF788FC0646754B76
:102800001B6803F00703A342C2D0FEF77FFC801BC6
:102810000228F4D90320D8E0AB684FF0B0418A68B1
:1028200022F0F00213438B60FEF770FC06464FF077
:10283000B0439B6813F4803FAED1FEF767FC801B6A
:102840000228F4D90320C0E06B694FF0B041D1F801
:10285000082122F0F0021343C1F80831FEF756FCBC
:1028600006464FF0B043D3F8083113F4003F97D138
:10287000FEF74CFC801B0228F3D90320A5E0A969D0
:102880004FF0B042D2F8083123F00F0343EA11139E
:10289000C2F80831FEF73AFC06464FF0B043D3F8D1
:1028A000083113F4803F7FF47FAFFEF72FFC801BCD
:1028B0000228F2D9032088E0EB684FF0B0418A6823
:1028C00022F4E06213438B60FEF720FC06464FF0D3
:1028D000B0439B6813F4003F7FF46BAFFEF716FC28
:1028E000801B0228F3D903206FE029694FF0B04222
:1028F000936823F4605343EAC1039360FEF706FC38
:1029000006464FF0B0439B6813F4802F7FF456AF18
:10291000FEF7FCFB801B0228F3D9032055E04FF0A3
:10292000B042126812F4003F0FD101204DE04FF089
:10293000B042126812F0007F07D1012045E04FF04D
:10294000B042126812F4806F42D04FF0B0418A68F2
:1029500022F0030213438B60FEF7D8FB06464FF0CC
:10296000B0439B6803F00C036A68B3EB820F08D096
:10297000FEF7CCFB801B41F288339842EFD903204D
:1029800023E0144B1B6803F00703A34215D9114A37
:10299000136823F0070323431360FEF7B7FB0546D4
:1029A0000C4B1B6803F00703A34206D0FEF7AEFBF7
:1029B000401B0228F4D9032007E0FFF741FB064B38
:1029C0001860FEF7A9FBFEF757FB70BD01207047AA
:1029D0000120FAE7004000581000002008B5FFF77A
:1029E0002FFB4FF0B0439B68C3F30223034A52F816
:1029F000233003F01F03D84008BD00BF6C56000809
:102A000008B5FFF71DFB4FF0B0439B68C3F3C2232B
:102A1000034A52F8233003F01F03D84008BD00BF1B
:102A20006C5600084FF0B041D1F88830020902F42A
:102A30007F2223EA0203000100F47F200343C1F850
:102A40008830704770B505464FF0B042136823F0E8
:102A500080631360FEF75AFB04464FF0B0431B68D7
:102A600013F0006F06D0FEF751FB001B0228F4D9CB
:102A7000032400E000240CB1204670BD4FF0B043A9
:102A80001A6922F4FE42296842EA01221A611A698F
:102A900022F4781269680A431A611A6842F0806267
:102AA0001A60FEF733FB06464FF0B0431B6813F085
:102AB000006F05D1FEF72AFB801B0228F4D90324FE
:102AC000002CD9D14FF0B042136929690B4313612F
:102AD000D2E770B505464FF0B042136823F080632B
:102AE0001360FEF713FB04464FF0B0431B6813F06E
:102AF000006F06D0FEF70AFB001B0228F4D903245E
:102B000000E000240CB1204670BD4FF0B0431A69BC
:102B100022F4FE42296842EA01221A611A6922F06F
:102B20006062A9680A431A611A6842F080621A60FA
:102B3000FEF7ECFA06464FF0B0431B6813F0006F47
:102B400005D1FEF7E3FA801B0228F4D90324002CF8
:102B5000D9D14FF0B042136929690B431361D2E711
:102B600070B505464FF0B042136823F080631360E0
:102B7000FEF7CCFA04464FF0B0431B6813F0006F29
:102B800006D0FEF7C3FA001B0228F4D9032400E0A4
:102B900000240CB1204670BD4FF0B0431A6922F4F6
:102BA000FE42296842EA01221A611A6922F0604253
:102BB000E9680A431A611A6842F080621A60FEF7F7
:102BC000A5FA06464FF0B0431B6813F0006F05D11D
:102BD000FEF79CFA801B0228F4D90324002CD9D1DB
:102BE0004FF0B042136929690B431361D2E770B506
:102BF0000446036813F0400F2FD0036BB3F5800F2A
:102C000014D00AD833B90430FFF71CFF0646A0B130
:102C1000054624E001252E4621E0B3F5000F18D02B
:102C2000B3F5400F17D001252E4618E04FF0B04203
:102C3000D36843F48033D3600026236B4FF0B04158
:102C4000D1F8882022F440021343C1F888300025CF
:102C500005E00026F1E70026EFE700252E46236871
:102C600013F4006F0AD04FF0B043D3F8905005F43E
:102C70004075236CAB4240F0B7803546236813F0B3
:102C8000010F09D0A3694FF0B041D1F8882022F09C
:102C900003021343C1F88830236813F0020F09D0F0
:102CA000E3694FF0B041D1F8882022F44062134329
:102CB000C1F88830236813F0100F0CD0A16A4FF0D0
:102CC000B042D2F88830080C000423EA000343EA3B
:102CD0000143C2F88830236813F0200F0CD0E16A5A
:102CE0004FF0B042D2F88830080C000423EA000309
:102CF00043EA0143C2F88830236813F0040F40F020
:102D0000B480236813F0080F40F0B380236813F4F5
:102D1000807F13D0636B4FF0B041D1F8882022F050
:102D200040621343C1F88830636BB3F1006F00F069
:102D3000A480636BB3F1806F00F0A480236813F468
:102D4000007F17D0A36BB3F1804F05D0B3F1004FD4
:102D500002D0002B40F09E804FF0B041D1F8882087
:102D600022F040421343C1F88830A36BB3F1C05F37
:102D700000F0A280236813F4806F13D0E36B4FF050
:102D8000B041D1F8882022F040521343C1F8883076
:102D9000E36BB3F1005F00F09680E36BB3F1805F0B
:102DA00000F09680236813F4805F09D0636C4FF0C5
:102DB000B041D1F8942022F440421343C1F894303A
:102DC000236813F4005F0DD0E26C4FF0B043596AF2
:102DD00021F030010A435A62A26C596A21F00301C2
:102DE0000A435A62284670BDFFF734F85DB9236C78
:102DF0004FF0B041D1F8902022F440721343C1F853
:102E0000903035463AE74FF0B043D3F89020D3F8EE
:102E1000901041F48031C3F89010D3F8901021F451
:102E20008031C3F8901022F44072216C0A43C3F839
:102E30009020D3F8903013F0010F12D0FEF766F90E
:102E400005464FF0B043D3F8903013F0020F0AD18B
:102E5000FEF75CF9401B41F288339842F1D9032513
:102E60000CE735460AE7354608E7206AFFF7DAFD42
:102E700047E7606AFFF7D6FD48E7CB6843F0807309
:102E8000CB6056E7201DFFF724FE00283FF456AF25
:102E9000054653E723F080534FF0B042D2F8881034
:102EA00021F04041C2F88810D2F8881021F040612A
:102EB0000B43C2F8883058E74FF0B042D36843F074
:102EC0008073D36056E7CB6843F48033CB6064E70C
:102ED000201DFFF745FE00283FF464AF054661E77B
:102EE00010B4036A046A24F001040462846924F0C3
:102EF000F00C4CEA021223F00A030B4382610362D6
:102F00005DF8044B704710B4036A046A24F010049F
:102F10000462846924F4704C4CEA023223F0A0036A
:102F200043EA0113826103625DF8044B70478368D2
:102F300023F4401323F070030B4343F00703836033
:102F40007047000090F83D30012B1DD1022380F81E
:102F50003D3003680F4A934208D0B3F1804F05D04B
:102F60001A6842F001021A600020704799680A4A04
:102F70000A40062A0AD0B2F5803F09D01A6842F00A
:102F800001021A600020704701207047002070473E
:102F900000207047002C01400700010090F83D30F0
:102FA000012B22D1022380F83D300268D36843F020
:102FB0000103D3600368104A934208D0B3F1804FF5
:102FC00005D01A6842F001021A6000207047996823
:102FD0000A4A0A40062A0AD0B2F5803F09D01A6888
:102FE00042F001021A600020704701207047002063
:102FF00070470020704700BF002C0140070001000F
:10300000704770477047704770B504460368DE68C4
:103010001D6915F0020F10D016F0020F0DD06FF0E1
:1030200002021A610123037703689B6913F0030FFF
:1030300064D0FFF7E6FF0023237715F0040F12D0CA
:1030400016F0040F0FD023686FF004021A610223F8
:10305000237723689B6913F4407F55D02046FFF700
:10306000D0FF0023237715F0080F12D016F0080FB9
:103070000FD023686FF008021A61042323772368B6
:10308000DB6913F0030F46D02046FFF7BAFF002399
:10309000237715F0100F12D016F0100F0FD0236801
:1030A0006FF010021A61082323772368DB6913F499
:1030B000407F37D02046FFF7A4FF0023237715F089
:1030C000010F02D016F0010F33D115F4025F02D0C8
:1030D00016F0800F35D115F4807F02D016F0800FE6
:1030E00037D115F0400F02D016F0400F39D115F04E
:1030F000200F02D016F0200F3BD170BDFFF780FFEC
:103100002046FFF77FFF96E72046FFF779FF20462E
:10311000FFF778FFA5E72046FFF772FF2046FFF78D
:1031200071FFB4E72046FFF76BFF2046FFF76AFF09
:10313000C3E723686FF001021A612046FDF74EFCD9
:10314000C3E723686FF402521A61204600F049F980
:10315000C1E723686FF480721A61204600F042F9DB
:10316000BFE723686FF040021A612046FFF74BFF6C
:10317000BDE723686FF020021A61204600F030F9A5
:10318000BBE7000003681C4A904202D0B0F1804FB8
:1031900003D123F070034A681343174A90420AD0C0
:1031A000B0F1804F07D002F5C052904203D002F533
:1031B0008062904203D123F44073CA68134323F022
:1031C00080034A6913438A68C2620A6882620A4AB3
:1031D000904207D002F5C052904203D002F58062BF
:1031E000904201D10A690263026842F0040202605F
:1031F0000122426103607047002C014060B310B5AA
:10320000044690F83D3013B3022384F83D30214644
:1032100051F8040BFFF7B6FF012384F8483084F817
:103220003E3084F83F3084F8403084F8413084F8F0
:10323000423084F8433084F8443084F8453084F8D0
:10324000463084F8473084F83D30002010BD80F8C7
:103250003C3000F0D9FCD7E70120704710B48468F7
:1032600024F47F4C42EA03220A4342EA0C028260C1
:103270005DF8044B7047000090F83C30012B76D08D
:1032800010B50446012380F83C30022380F83D301D
:1032900002689068374B034093600B68602B4CD0FA
:1032A00023D8402B54D011D8202B03D00AD80BB1EF
:1032B000102B05D119462068FFF739FE002028E0C1
:1032C000012026E0302BF5D0012022E0502B0AD13E
:1032D000CA6849682068FFF703FE50212068FFF79D
:1032E00026FE002015E0012013E0B3F5805F3AD000
:1032F000B3F5005F14D0702B37D1CB684A6889686A
:103300002068FFF7ABFF2268936843F07703936070
:103310000020012384F83D30002384F83C3010BDA8
:10332000CB684A6889682068FFF798FF226893682D
:1033300043F4804393600020EBE7CA684968206843
:10334000FFF7E1FD60212068FFF7F1FD0020E0E7D5
:10335000CA6849682068FFF7C3FD40212068FFF76D
:10336000E6FD0020D5E70020D3E70120D1E70220C9
:10337000704700BF8800CEFF90F83C20012A2BD078
:1033800030B40346012280F83C20022280F83D2020
:10339000006842688468114DA84218D022F070027B
:1033A0000D682A4342601A680C48824202D0B2F18A
:1033B000804F04D124F08004896821439160012268
:1033C00083F83D20002083F83C0030BC704722F495
:1033D00070024D682A43E1E702207047002C01404B
:1033E000704770477047026852E8003F23F49073BB
:1033F00042E800310029F6D1026802F1080353E8DF
:10340000003F23F0805323F00103083242E80031EB
:103410000029F1D1C36E012B06D02023C0F88C30D7
:103420000023C36643677047026852E8003F23F0F9
:10343000100342E800310029F6D1EEE770B50446EA
:1034400083680269134342691343C26913430168E5
:103450000868894A02401A430A602268536823F4C4
:103460004053E1680B435360A1692268834B9A4241
:1034700001D0236A1943936823F06E4323F4306329
:103480000B4393602268D36A23F00F03616A0B43F6
:10349000D36222687A4B9A4214D0784B9A4225D054
:1034A000102376498A4240D0E069B0F5004F7AD0C7
:1034B000013B072B00F2D480DFE803F0A6A4D2ABD7
:1034C000D2D2D2AE4FF0B043D3F8883003F003032A
:1034D000032B09D8DFE803F002041F060123E0E70D
:1034E0000423DEE70823DCE71023DAE74FF0B043DC
:1034F000D3F8883003F44063B3F5006F0DD005D8DE
:103500006BB1B3F5806F0CD10423CAE7B3F5406FFC
:1035100009D10823C5E70223C3E70223C1E700233B
:10352000BFE71023BDE71023BBE7082B00F28C8018
:10353000DFE803F0088A108A0D8A8A8A05004FF4B2
:10354000004008E0FFF74AFA28B9002089E0FEF7BA
:1035500017FDF9E74B48626A4B4B33F81220B0FB7A
:10356000F2F3656805EB450199426FD8B3EB053F6F
:103570006ED8002633463146FCF732FE090241EA96
:10358000106100026B08C0182A46334641F1000161
:10359000FCF726FEA0F540723C4B9A425AD82368AD
:1035A000D86030465DE0013B072B55D8DFE803F0DB
:1035B00021045427545454053248626A324B33F87C
:1035C0001230B0FBF3F06268530803EB4003B3FB27
:1035D000F2F3A3F110014FF6EF7291423ED89AB286
:1035E00022F00F02C3F3420313432268D36000208A
:1035F00037E0FFF705FA0028DFD1002031E0FEF7C1
:10360000BFFCF8E71F4809E0FFF7FAF930B90020DE
:1036100027E0FEF7B5FCF9E74FF40040626A1A4B69
:1036200033F81230B0FBF3F0636800EB5300B0FBEB
:10363000F3F0A0F110024FF6EF739A421AD8236804
:1036400080B2D86000200CE001200AE0012008E0F0
:10365000012006E0012004E0012002E0012000E05A
:1036600001200123A4F86A30A4F8683000236367BE
:10367000A36770BD0120F4E7F369FFCF008000402D
:10368000003801400024F40004560008FFFC0F003D
:10369000836A13F0080F06D00268536823F40043CE
:1036A000816B0B435360836A13F0010F06D00268ED
:1036B000536823F40033C16A0B435360836A13F0E9
:1036C000020F06D00268536823F48033016B0B436A
:1036D0005360836A13F0040F06D00268536823F422
:1036E0008023416B0B435360836A13F0100F06D0A5
:1036F0000268936823F48053C16B0B439360836A21
:1037000013F0200F06D00268936823F40053016C75
:103710000B439360836A13F0400F0AD0026853682A
:1037200023F48013416C0B435360436CB3F5801F4B
:103730000BD0836A13F0800F06D00268536823F41D
:103740000023C16C0B43536070470268536823F435
:10375000C003816C0B435360EBE72DE9F84305464A
:103760000E4617469946DDF820802B68DC6936EA5C
:1037700004040CBF01240024BC4236D1B8F1FF3F41
:10378000F3D0FDF7C3FCA0EB0900404530D8B8F1F9
:10379000000F2FD02B681A6812F0040FE5D0802E8E
:1037A000E3D0402EE1D0DA6912F0080F11D1DA69C6
:1037B00012F4006FD9D04FF400621A622846FFF766
:1037C00012FE2023C5F89030002385F884300320B2
:1037D0000CE008241C622846FFF705FEC5F890405F
:1037E000002385F88430012000E00020BDE8F88344
:1037F0000320FBE70320F9E730B583B0044600233C
:10380000C0F89030FDF782FC05462268126812F07D
:10381000080F10D123681B6813F0040F28D1202350
:10382000C4F88830C4F88C300020E066206784F843
:10383000840003B030BD6FF07E4300930346002246
:103840004FF400112046FFF788FF0028E2D02268DD
:1038500052E8003F23F0800342E800310029F6D10E
:103860002023C4F88830002384F884300320E0E764
:103870006FF07E4300932B4600224FF480012046D8
:10388000FFF76BFF0028CAD0226852E8003F23F4FC
:10389000907342E800310029F6D1226802F1080352
:1038A00053E8003F23F00103083242E800310029C9
:1038B000F3D12023C4F88C30002384F88430032013
:1038C000B7E778B310B50446D0F888300BB324239B
:1038D000C4F888302268136823F001031360A36AD8
:1038E000E3B92046FFF7AAFD012811D022685368EA
:1038F00023F4904353602268936823F02A03936073
:103900002268136843F0010313602046FFF774FF39
:1039100010BD80F8843000F0C9F9D8E72046FFF7E1
:10392000B7FEDEE701207047436E2BB90123A0F8F4
:103930006A30A0F86830704730B403689A68C2F300
:1039400042629968490F094D6B5CDB00084C615C71
:1039500093FBF1F3A0F86A30AB5CDB00A25C93FB55
:10396000F2F3A0F8683030BC704700BF245600085E
:103970001C56000890F88430012B18D0012380F8E1
:1039800084302423C0F8883003681A68196821F04D
:103990000101196022F000520023436601680A60A9
:1039A0002022C0F8882080F8843018467047022012
:1039B000704738B590F88430012B1DD004460123A0
:1039C00080F884302423C0F8883003681D681A68A2
:1039D00022F001021A600268936823F060431943E1
:1039E0009160FFF7A1FF23681D602023C4F8883091
:1039F000002084F8840038BD0220FCE738B590F838
:103A00008430012B1DD00446012380F88430242308
:103A1000C0F8883003681D681A6822F001021A6035
:103A20000268936823F0606319439160FFF77CFF9D
:103A300023681D602023C4F88830002084F88400A7
:103A400038BD0220FCE7FEE7FEE7FEE7FEE7FEE703
:103A500070477047704708B5FDF74CFB08BD000084
:103A600008B50248FFF7D0FA08BD00BF5801002092
:103A70000120704708B500F08DFB162303604FF05E
:103A8000FF3008BD08B54FF0FF31FFF7F3FFFEE749
:103A900070B50C461646002506E0AFF300802146BF
:103AA00001F8010B01350C46B542F6DB304670BD1E
:103AB00070B50C461646002504E014F8010BAFF370
:103AC00000800135B542F8DB304670BD4FF0FF3065
:103AD00070474FF400534B6000207047012070473F
:103AE0000020704710B503460C4A0D490D48006888
:103AF00040B10C4800680344521A934206D8094A60
:103B0000136010BD0748084C0460F2E700F042FB68
:103B10000C2303604FF0FF30F3E700BF00000320E9
:103B2000000400005401002088030020164AD2F847
:103B3000883043F47003C2F888304FF0B0431A68FD
:103B400042F001021A604FF4E0229A601968A2F173
:103B5000A262A2F205120A401A60D3F8942022F061
:103B60000502C3F89420D3F8982022F00102C3F88C
:103B70009820064ADA601A611A6822F480221A60D4
:103B800000229A61704700BF00ED00E0001004229F
:103B900000B589B00023049305930693079301931E
:103BA0000293039316484FF0804202601F22426046
:103BB0008360144AC26003618361FFF71FFBA8B9E9
:103BC0004FF48053049304A90D48FFF755FB80B9C7
:103BD00000230193039301A90948FFF7CDFB58B9CE
:103BE0000748FFF7DBF909B05DF804FBFDF7A4F91E
:103BF000E6E7FDF7A1F9EBE7FDF79EF9F0E700BF77
:103C000058010020A08601000368B3F1804F00D066
:103C1000704700B583B04FF0B0439A6D42F0010297
:103C20009A659B6D03F001030193019B00221146ED
:103C30001C20FDF7FFFF1C20FEF70CF803B05DF819
:103C400004FB000008B51748174B03604FF41653E8
:103C5000436000238360C36003610C22426183617F
:103C6000C361036243628362FFF72BFE70B90021D8
:103C70000C48FFF79EFE60B900210A48FFF7BEFE20
:103C800050B90848FFF776FE48B908BDFDF754F96A
:103C9000EDE7FDF751F9EFE7FDF74EF9F1E7FDF735
:103CA0004BF9F2E7A40100200038014010B59CB0A8
:103CB000044600211791189119911A911B915022D5
:103CC00003A800F019FA2268174B9A4201D01CB0E1
:103CD00010BD0123039303A8FEF789FF08BB4FF033
:103CE000B0431A6E42F480421A661A6E02F48042A1
:103CF0000292029ADA6C42F00202DA64DB6C03F0A0
:103D000002030193019BC0231793022318930023FE
:103D100019931A9307231B9317A90448FDF7B2FFC1
:103D2000D5E7FDF709F9DAE700380140000400485B
:103D3000D458C4500433C4188C42F9D3704703607C
:103D400004308842FBD370470C488546FFF7EEFEEF
:103D50000B480C490C4A0023FFF7EDFF0B480C49B8
:103D60000C4A0023FFF7E7FF0B480C490023FFF73D
:103D7000E8FF00F015FAFDF745F9FEE70000032023
:103D80000800002070000020E45700080000032015
:103D9000000003204C58000870000020840300201D
:103DA000FEE7000038B5104B1D682A6B0446B2B917
:103DB000182000F085FA0246286320B90B4B0C4806
:103DC000462100F015FA0B490B4BC0E900130B4BD1
:103DD00083600B23838100210120C2E904010023B9
:103DE0001461536138BD00BF20000020CC5600088C
:103DF000E35600080E33CDAB34126DE6ECDE050061
:103E0000164B10B51C68226BB2B9182000F058FA96
:103E10000246206320B9124B1248522100F0E8F903
:103E20001149124BC0E90013114B83600B238381AE
:103E300000210120C2E9040113690E4854690E49AA
:103E4000584301FB0400A3FB0131013340EB0100A7
:103E5000C2E9043020F0004010BD00BF2000002067
:103E6000CC560008E35600080E33CDAB34126DE695
:103E7000ECDE05002DF451582D7F954C002310B534
:103E80000446C0E90033C0E904338360818143669E
:103E9000C2818361194608225C3000F02DF90D4B78
:103EA00063620D4BA3620D4BE3620D4B23630D4B1D
:103EB00024629C4206D003F16802944202D0D033BF
:103EC0009C4205D104F15800BDE8104000F08CB9C7
:103ED00010BD00BF7140000893400008CB400008AF
:103EE000F140000838020020024A0349034800F06C
:103EF0006BB800BF14000020054B00082400002010
:103F000041680C4B994210B5044601D000F0FAFD0F
:103F1000A168094B994202D0204600F0F3FDE16808
:103F2000064B994204D02046BDE8104000F0EABD9F
:103F300010BD00BF38020020A002002008030020AE
:103F40000C4B0D4A0D4810B504211A600022FFF7F2
:103F500095FF0A4B01221C46092103F16800FFF777
:103F60008DFF04F1D0000222BDE810401221FFF7BE
:103F700085BF00BF70030020E93E00083802002022
:103F8000014800F032B900BF79030020014800F079
:103F90002DB900BF7903002010B50446FFF7F0FFEC
:103FA000236A1BB1BDE81040FFF7F0BF044B23624A
:103FB000044B1B68002BF5D1FFF7C2FFF2E700BFEF
:103FC000013F0008700300202DE9F84307468846AA
:103FD00014460026D4E90195B9F1010905D52468F4
:103FE000002CF7D13046BDE8F883AB89012B07D907
:103FF000B5F90E30013303D029463846C047064391
:104000006835E9E70CB430B5184B0C1E1D689DB03F
:1040100008DA8B232B604FF0FF301DB0BDE8304035
:1040200002B070474FF40273ADF814304FF0000344
:104030001B9314BF04F1FF332346049307934FF6F9
:10404000FF7302900690ADF81630209A21AB02A9BA
:104050002846019300F04AFA431CBCBF8B232B6017
:10406000002CDAD0029B00221A70D6E72000002034
:1040700010B50C46B1F90E1000F068F80028ABBF7F
:10408000636DA3891B1823F48053ACBF6365A381C0
:1040900010BD2DE9F0411F468B89DB0505460C4616
:1040A000164605D5B1F90E100223002200F03CF8A7
:1040B000A389B4F90E1023F48053A38132463B4602
:1040C0002846BDE8F04100F053B810B50C46B1F9F0
:1040D0000E1000F029F8B4F90C30421C0BBF23F489
:1040E000805343F48053A381A38118BF606510BD42
:1040F000B1F90E1000F008B802440346934200D113
:10410000704703F8011BF9E738B5064D0023044654
:1041100008462B60FFF7DAFC431C02D12B6803B181
:10412000236038BD7403002038B5074D04460846A7
:10413000114600222A601A46FFF7D2FC431C02D126
:104140002B6803B1236038BD7403002038B5074DD8
:1041500004460846114600222A601A46FFF798FCDA
:10416000431C02D12B6803B1236038BD74030020C7
:1041700038B5074D04460846114600222A601A4603
:10418000FFF796FC431C02D12B6803B1236038BDB6
:1041900074030020014B1868704700BF2000002006
:1041A00070B50D4B0D4D5B1B9C100026A64209D12E
:1041B00001F06AF90A4D0B4B5B1B9C100026A642CE
:1041C00005D170BD55F8043B98470136EEE755F828
:1041D000043B98470136F2E7DC570008DC5700083B
:1041E000DC570008E0570008704770477047000030
:1041F0001FB514461A46094B1B680546D8684CB1D2
:10420000074B0091CDE9013406492B4600F0A2FC92
:1042100000F0EAFC044B1C46F3E700BF200000203E
:104220006557000872570008A057000838B50546C2
:10423000002941D051F8043C0C1F002BB8BFE418F2
:1042400000F0E8F81D4A136833B96360146028462B
:10425000BDE8384000F0E4B8A34208D9206821182E
:104260008B4201BF19685B6809182160EDE71A46A7
:104270005B680BB1A342FAD911685018A0420BD168
:1042800020680144501883421160E0D118685B68CF
:10429000536008441060DAE702D90C232B60D6E79C
:1042A000206821188B4204BF19685B68636004BFF3
:1042B000091821605460CAE738BD00BF80030020A0
:1042C000024B0146186800F025B800BF200000200E
:1042D00070B50F4E0C463168054611B900F066FC0A
:1042E00030602146284600F061FC431C03D14FF0AA
:1042F000FF34204670BDC41C24F00304A042F8D053
:10430000211A284600F052FC0130F2D1EFE700BF3D
:104310007C0300202DE9F843CD1C25F0030508356A
:104320000C2D38BF0C25002D064601DBA94204D90F
:104330000C2333600020BDE8F883DFF8D48000F060
:1043400069F8D8F800301C4644BB29463046FFF7D0
:10435000BFFF431C044658D1D8F800402746002F21
:1043600043D1002C4BD023683946304604EB030977
:1043700000F01CFC814542D121686D1A2946304667
:10438000FFF7A6FF01303AD023682B442360D8F80A
:1043900000305A6862BBC8F800700FE02268521BF8
:1043A00020D40B2A17D96119A342256018BF596080
:1043B000636808BFC8F8001062514B60304600F0D7
:1043C0002FF804F10B00231D20F00700C21A1CBFB8
:1043D0001B1AA350AFE76268A3420CBFC8F80020C5
:1043E0005A60EBE723466468AEE73C467F68B6E771
:1043F0001A465B68A342FBD100235360DEE70C231F
:104400003360304600F00CF894E70560D6E700BF53
:10441000800300200148FFF7E8BE00BF78030020BA
:104420000148FFF7E3BE00BF780300202DE9F04705
:104430008E681F46BE4282460C469046334653D88D
:10444000B1F90C0010F4906F2BD0656923680969ED
:1044500005EB4505A3EB010905EBD5757B1C6D103C
:104460004B44AB422A4684BF1D462A46430527D506
:1044700011465046FFF74EFF064658B321694A469B
:1044800000F0A4FBA38923F4906343F08003A3818D
:10449000266165614E44A5EB09052660A5603E4690
:1044A0003B461F4620683A46414600F065FBA3683C
:1044B0009B1BA36023683B4423600020BDE8F0877A
:1044C000504600F098FB06460028E1D1216950468D
:1044D000FFF7ACFE0C23CAF80030A38943F0400379
:1044E000A3814FF0FF30E9E73E46DBE72DE9F04FCF
:1044F00098468B891B069DB007460D46144610D57D
:104500000B6973B94021FFF705FF2860286130B9B6
:104510000C233B604FF0FF301DB0BDE8F08F40230F
:104520006B610023099320238DF82930CDF80C808E
:104530003023DFF89C818DF82A304FF001092346A3
:104540009A4613F8012B0AB1252AF9D1BAEB040BCC
:104550000BD05B46224629463846FFF767FF0130FD
:1045600000F0A780099A5A4409929AF80030002B6B
:1045700000F09F8000234FF0FF32CDE905230AF1C0
:10458000010A049307938DF853301A935446052279
:1045900014F8011B4E48FBF7D3FD049AD8B9D00696
:1045A00044BF20238DF85330110744BF2B238DF8CF
:1045B00053309AF800302A2B15D0079A5446002021
:1045C0004FF00A0C214611F8013B303B092B4BD927
:1045D000B0B1079214E0A0EB080309FA03F3134308
:1045E0000493A246D2E7039B191D1B680391002B7D
:1045F000BBBF5B4242F0020207930793B8BF04922D
:1046000023782E2B0AD163782A2B32D1039B1A1DD3
:104610001B68039243EAE37302340593DFF8C0A0FA
:10462000217803225046FBF78BFD38B1049BA0EBA9
:104630000A004022824013430134049314F8011B02
:1046400024488DF828100622FBF77AFD002836D082
:10465000214B1BBB039B073323F007030833039352
:10466000099B334409936AE70CFB02320C46012094
:10467000A8E700230134059319464FF00A0C2046A1
:1046800010F8012B303A092A03D9002BC6D0059126
:10469000C4E70CFB012104460123F0E703AB0093C0
:1046A0002A460E4B04A93846AFF30080421C06464A
:1046B000D6D1AB895B063FF52DAF09982CE703AB4C
:1046C00000932A46054B04A9384600F079F8EDE737
:1046D000A1570008AB570008000000002D44000857
:1046E000A75700082DE9F047164698468A680B69D7
:1046F000DDF820909342B8BF1346336091F8432011
:1047000007460C460AB1013333602368990642BF5D
:10471000336802333360256815F0060506D104F1CD
:10472000190AE36832689B1AAB4226DC94F84330DE
:104730002268003B18BF012392062BD404F14302E8
:1047400041463846C84701301ED02368226903F02D
:104750000603042B02BFE5683368ED1AA3680CBF9B
:1047600025EAE57500259342C4BF9B1AED18002683
:104770001A34B5421AD1002008E0012352464146BE
:104780003846C847013003D14FF0FF30BDE8F0870D
:104790000135C6E7E1185A1C302081F84300224455
:1047A00094F8451082F843100233C7E701232246EC
:1047B00041463846C8470130E6D00136D9E7000007
:1047C0002DE9FF470F7E0C9E782F914680460C46C0
:1047D0009A4601F1430207D8622F0AD8002F00F051
:1047E000D280582F00F0B78004F1420684F842705E
:1047F0003AE0A7F16303152BF6D801A151F823F095
:10480000594800086D480008E9470008E9470008D2
:10481000E9470008E94700086D480008E947000833
:10482000E9470008E9470008E94700086D49000822
:104830009748000823490008E9470008E9470008AD
:104840008F490008E947000897480008E947000831
:10485000E94700082B49000833681A1D1B683260BD
:1048600004F1420684F8423001239DE03368206859
:10487000191D3160060601D51D6803E04506FBD50C
:10488000B3F90050002D03DA2D236D4284F8433034
:1048900059480A2310E021683368080653F8045B7E
:1048A00002D4490648BFADB26F2F5348336059D187
:1048B0000823002184F843106668A660002E05DBFB
:1048C00021682E4321F0040121604DD01646B5FB2E
:1048D000F3F103FB1157C75D06F8017D2F46BB427C
:1048E0000D46F4D9082B0BD12368DF0708D52369BF
:1048F00061689942DEBF302306F8013C06F1FF36BD
:10490000921B2261CDF800A04B4603AA21464046E7
:10491000FFF7E8FE01304CD14FF0FF3004B0BDE8A6
:10492000F087236843F0200323603448782784F815
:104930004570236831681F0651F8045B02D45F0696
:1049400048BFADB23160D90744BF43F020032360B4
:104950001DB11023ADE72848E9E7236823F02003C1
:104960002360F6E70A23A4E71646BBE73368256809
:104970006169181D30602E061B6801D5196002E0C0
:104980006806FBD51980002323611646BAE7336811
:104990001A1D32601E68626800213046FBF7D0FBAA
:1049A00008B1801B606063682361002384F8433092
:1049B000A8E72369324649464046D0470130ABD08C
:1049C00023689B0713D4E068039B9842B8BF18463E
:1049D000A4E70123324649464046D04701309BD0E8
:1049E0000135E36803995B1AAB42F2DCEBE7002583
:1049F00004F11906F5E700BFB2570008C3570008D5
:104A0000B1F90C202DE9F041160705460C4651D4AA
:104A10004B68002B02DC0B6C002B49DDE66A002E94
:104A200046D0002312F480522F682B6031D0626D83
:104A3000A389590705D56368D21A636B0BB1236C40
:104A4000D21A0023E66A216A2846B047421CB4F90C
:104A50000C3006D129681D2946D8294ACA40D607F4
:104A600042D500226260D9042269226004D5421C2A
:104A700001D12B6803B96065616B2F60C1B104F18E
:104A80004403994202D02846FFF7D0FB002363631A
:104A90000EE0216A01232846B0470246501CC7D1C8
:104AA0002B68002BC4D01D2B01D0162B1AD12F60E0
:104AB00000201EE00F69002FFAD093070E6808BF90
:104AC0004B690F6018BF0023A6EB07088B60B8F195
:104AD000000FEDDD216AA66A43463A462846B047F4
:104AE000002808DCB4F90C3043F04003A3814FF0F8
:104AF000FF30BDE8F0810744A8EB0008E7E700BFFE
:104B00000100402038B50B6905460C4613B9002555
:104B1000284638BD18B1036A0BB9FFF73DFAB4F95E
:104B20000C30002BF3D0626ED00704D4990502D468
:104B3000A06DFFF75AFB28462146FFF761FF636E21
:104B4000DA070546E4D4A3899B05E1D4A06DFFF7FD
:104B50004DFBDDE70EB403B5014603AB054853F842
:104B6000042B0068019300F09DF802B05DF804EB9F
:104B700003B0704720000020884210B501EB02040A
:104B800002D98442234607D8431EA14207D011F818
:104B9000012B03F8012FF8E70244824200D110BD37
:104BA00013F8011D02F8011DF7E7000038B5064DA6
:104BB0000023044608462B60FEF794FF431C02D1F5
:104BC0002B6803B1236038BD740300200A4491426E
:104BD00000F1FF3300D1704710B511F8014B03F815
:104BE000014F9142F9D110BD08B5062000F02CFA12
:104BF0000120FEF747FF2DE9F041074614460D4618
:104C000021B9BDE8F0411146FFF784BB2AB9FFF78F
:104C10000DFB25462846BDE8F08100F031FA8442BC
:104C2000064602D8B4EB500FF4D821463846FFF7B9
:104C300071FB804608B94546ECE7B4422246294656
:104C400028BF3246FFF7C2FF29463846FFF7EEFA83
:104C5000F1E79368013B002B10B4936008DA946984
:104C6000A34201DB0A2903D15DF8044B00F032B9FD
:104C70001368581C1060197008465DF8044B7047A3
:104C8000F8B506460F461446D518AC4201D10020AF
:104C900007E014F8011B3A463046FFF7DAFF431CE1
:104CA000F3D1F8BD2DE9F04F0D469DB0144698465E
:104CB000064618B1036A0BB9FFF76EF96B6ED90798
:104CC00005D4AB899A0502D4A86DFFF78EFAAB899B
:104CD0001B0701D52B699BB92946304600F038F9EE
:104CE00070B16B6EDC0704D54FF0FF301DB0BDE82E
:104CF000F08FAB899805F7D4A86DFFF777FAF3E743
:104D00000023099320238DF82930CDF80C8030231F
:104D1000DFF8AC818DF82A304FF0010923469A461E
:104D200013F8012B0AB1252AF9D1BAEB040B0BD0E9
:104D30005B46224629463046FFF7A2FF013000F0CD
:104D4000A780099A5A4409929AF80030002B00F083
:104D50009F8000234FF0FF32CDE905230AF1010ABD
:104D6000049307938DF853301A935446052214F890
:104D7000011B5348FBF7E4F9049AD8B9D10644BFA4
:104D800020238DF85330130744BF2B238DF8533065
:104D90009AF800302A2B15D0079A544600204FF07D
:104DA0000A0C214611F8013B303B092B4BD9B0B11D
:104DB000079214E0A0EB080309FA03F313430493EA
:104DC000A246D2E7039B191D1B680391002BBBBFB2
:104DD0005B4242F0020207930793B8BF0492237824
:104DE0002E2B0AD163782A2B32D1039B1A1D1B6804
:104DF000039243EAE37302340593DFF8D4A02178E9
:104E000003225046FBF79CF938B1049BA0EB0A0043
:104E10004022824013430134049314F8011B2948B3
:104E20008DF828100622FBF78BF900283FD0264B7F
:104E30001BBB039B073323F0070308330393099B32
:104E40003B4409936AE70CFB02320C460120A8E7B9
:104E500000230134059319464FF00A0C204610F840
:104E6000012B303A092A03D9002BC6D00591C4E79B
:104E70000CFB012104460123F0E703AB00932A4613
:104E8000124B04A93046AFF300800746781CD6D1F8
:104E90006B6ED90705D4AB899A0502D4A86DFFF7CC
:104EA000A5F9AB895B063FF51FAF09981EE703AB79
:104EB00000932A46054B04A93046FFF781FCE4E73E
:104EC000A1570008AB57000800000000814C000803
:104ED000A7570008F8B50E461446054618B1036AF0
:104EE0000BB9FFF759F8A369A360A3891A0701D585
:104EF000236943B92146284600F02AF818B14FF03B
:104F0000FF373846F8BD23682269981A6369F6B2FC
:104F10008342374605DC21462846FFF7F3FD00288B
:104F2000EDD1A368013BA36023685A1C22601E7068
:104F30006269431C9A4204D0A389DB07E1D50A2E9B
:104F4000DFD121462846FFF7DDFD0028D9D0D6E77E
:104F500038B5284B054618680C4618B1036A0BB9DA
:104F6000FFF71AF8B4F90C301A0721D4D80607D481
:104F700009222A6043F04003A3814FF0FF3030E064
:104F8000590712D5616B41B104F14403994202D033
:104F90002846FFF74BF9002363630022B4F90C3075
:104FA00062602269226023F0240343F00803A38196
:104FB00022693AB99A0501D5180603D52146284633
:104FC00000F08AF8B4F90C3013F001020AD0002284
:104FD000A26062695242A261226942B913F0800064
:104FE000C8D138BD990758BF6269A260F4E70020B4
:104FF000F7E700BF200000201F2938B505460C4602
:1050000004D9162303604FF0FF3038BDC26B12B1D4
:1050100052F821304BB9284600F030F822460146BC
:105020002846BDE8384000F017B8012B0AD0591CBB
:1050300003D1162303600120E7E7002142F8241082
:10504000204698470020E0E7024B01461868FFF72A
:10505000D3BF00BF2000002038B5074D0023044611
:10506000084611462B60FEF705FD431C02D12B6854
:1050700003B1236038BD00BF74030020FEF7F8BC05
:1050800051F8043C181F002BBCBF0B58C0187047C8
:1050900070B50C46B1F90E10002996B015461E46A3
:1050A0000ADAA18911F0800113D14FF48062002047
:1050B00031602A6016B070BD6A4600F047F80028DB
:1050C000EFDB019901F47041A1F5005359425941B8
:1050D000EBE700214022EAE78B8973B59E0705467E
:1050E0000C4607D504F14703236023610123636164
:1050F00002B070BD01AB6A46FFF7CAFF009E2846AA
:105100003146FFF707F9B4F90C3038B99A05EFD4F6
:1051100023F0030343F00203A381E3E743F080039A
:10512000A381019B2060C4E90406002BE0D0B4F900
:105130000E10284600F01CF80028D9D0A38923F0CF
:10514000030343F00103A381D2E7000038B5074D04
:1051500000230446084611462B60FEF7BAFC431CA8
:1051600002D12B6803B1236038BD00BF7403002057
:1051700038B5064D0023044608462B60FEF7AEFC0A
:10518000431C02D12B6803B1236038BD7403002097
:105190002DE9F047089D0F4604468C46002B48D168
:1051A0008A42164661D9B2FA82F34BB1C3F12002AA
:1051B00001FA03FC20FA02F29E4042EA0C0C9C40E9
:1051C0004FEA164EB7B2BCFBFEF1220C0EFB11CC1F
:1051D00042EA0C4201FB07F0904209D9B21801F1F2
:1051E000FF3C80F0EE80904240F2EB800239324486
:1051F000121AA4B2B2FBFEF00EFB102244EA0244E3
:1052000000FB07F7A74209D9341900F1FF3280F0FB
:10521000DA80A74240F2D7803444023840EA0140A5
:10522000E41B00211DB1DC400023C5E90043BDE8BB
:10523000F0878B4206D90DB1C5E90001002108466F
:10524000BDE8F087B3FA83F1002948D1BB4202D30D
:10525000824200F20781841A67EB03020120944620
:10526000002DE4D0C5E9004CE1E7002A00F092806F
:10527000B2FA82F3002B40F0A8808A1A4FEA164E49
:105280001FFA86FC0121200CB2FBFEF70EFB172251
:1052900040EA02420CFB07F0904207D9B21807F12E
:1052A000FF3802D2904200F2E2804746121AA4B2BE
:1052B000B2FBFEF00EFB102244EA02440CFB00FCA1
:1052C000A44507D9341900F1FF3202D2A44500F2F7
:1052D000CB801046A4EB0C0440EA0740A2E7C1F1E2
:1052E00020068B4022FA06FC4CEA030C07FA01F474
:1052F00020FA06F3F7404FEA1C49234300FA01F86D
:105300001FFA8CFEB7FBF9F01C0C09FB107744EA7E
:10531000074400FB0EF7A74202FA01F20AD91CEB80
:10532000040400F1FF3A80F09B80A74240F298808D
:1053300002386444E41B9FB2B4FBF9F309FB134445
:1053400047EA044403FB0EFEA64509D91CEB0404FE
:1053500003F1FF3780F08280A6457FD9023B644489
:1053600043EA0040A4EB0E04A0FB02E7BC427346F4
:10537000B94663D360D05DB1B8EB030264EB0904B6
:1053800004FA06F622FA01F31E43CC40C5E9006494
:1053900000214CE76208480842EAC1710B0C43EA5D
:1053A00000438AB242EA0342B3FBF6F1E407B44693
:1053B0003746B6461F23B0FBF6F0D21B41EA004148
:1053C00061E7614614E7104628E7C3F1200120FA9F
:1053D00001F29E4027FA01F19F403A434FEA164EF0
:1053E0001FFA86FCB1FBFEF70EFB1710110C41EA09
:1053F000004107FB0CF8884504FA03F43AD9711808
:1054000007F1FF3001D288451FD8A1EB0801B1FB9D
:10541000FEF808FB0CF70EFB181192B242EA0142AB
:10542000BA422FD2B21808F1FF31C6D2BA42C4D262
:10543000A8F102013244C0E7F0459CD2BEEB020362
:1054400067EB0C070138B94695E7A6EB080841441D
:10545000B81EB1FBFEF808FB0CF7DCE73B467FE724
:10546000504667E70846FBE63444023832E7023F1D
:1054700032441BE7A1EB08013846B1FBFEF808FBFC
:105480000CF7C8E7414698E7F8B500BFF8BC08BC80
:105490009E467047F8B500BFF8BC08BC9E467047F2
:1054A0001200000024000000360000004000000050
:1054B000060000000C0000001000000000000000CA
:1054C00001000000020000000300000057656C634B
:1054D0006F6D6520746F2074686500000000000027
:1054E00053696D6F6E2047616D650000507573687C
:1054F00020546F2053746172742100003120706C4D
:1055000061796572204F52003220706C617965724A
:10551000733F00003C313E20706C61796572204F12
:10552000520000003C323E20706C61796572733F1E
:1055300000000000526F756E6420256400000000BA
:1055400053696D6F6E2773205475726E21000000D1
:10555000506C617965722773205475726E2100005A
:1055600053636F72653A202564000000506C6179C6
:10557000657220312773205475726E00506C61790A
:10558000657220322773205475726E0047616D6515
:10559000204F76657221000050312053636F726591
:1055A0003A20256400000000506C6179657220315A
:1055B0002057696E73000000506C6179657220326B
:1055C0002057696E73000000506C6179657273201A
:1055D000546965640000000050322053636F7265A7
:1055E0003A20256400000000506C61792041676119
:1055F000696E3F005075736820746F205374617238
:1056000074000000010002000400060008000A0007
:105610000C0010002000400080000001080402047B
:10562000080101010101010307010000A08601003A
:10563000400D0300801A060000350C0040420F00A8
:1056400080841E0000093D0000127A000024F4004E
:1056500000366E010048E801006CDC02000000002A
:10566000000000000000000000000000000000003A
:105670000000000000000000000000000100000029
:105680000200000003000000040000000100000010
:105690000300000005000000010000000100000000
:1056A000060000000A0000002000000002000000C8
:1056B000040000000800000010000000400000008E
:1056C0008000000000010000000200005245454E2D
:1056D00054206D616C6C6F632073756363656564E2
:1056E0006564002F5F5F772F61726D2D6E6F6E6541
:1056F0002D656162692D6763632D787061636B2F1F
:1057000061726D2D6E6F6E652D656162692D6763C7
:10571000632D787061636B2F6275696C642D6173A2
:10572000736574732F6275696C642F77696E333299
:105730002D7836342F736F75726365732F6E6577AE
:105740006C69622D63796777696E2F6E65776C6916
:10575000622F6C6962632F7374646C69622F72616B
:105760006E642E63002C2066756E6374696F6E3AEA
:105770002000617373657274696F6E202225732235
:10578000206661696C65643A2066696C6520222533
:1057900073222C206C696E65202564257325730A9D
:1057A00000232D302B2000686C4C00656667454651
:1057B000470030313233343536373839414243448B
:1057C000454600303132333435363738396162631B
:0457D00064656600A6
:0857D4006CA9FF7F0100000039
:0457DC003902000886
:0457E00015020008A6
:1057E400010000001000000000093D00000000005E
:1057F4000300000038020020240000200000000004
:1058040038020020A002002008030020000000004D
:105814000000000000000000000000000000000084
:105824000000000000000000000000000000000074
:105834000000000000000000000000000000000064
:0858440000000000000000005C
:0400000508003D4969
:00000001FF
